:020000023000CC
:10E000000D9489F10D94B2F10D94B2F10D94B2F129
:10E010000D94B2F10D94B2F10D94B2F10D94B2F1F0
:10E020000D94B2F10D94B2F10D94B2F10D94B2F1E0
:10E030000D94B2F10D94B2F10D94B2F10D94B2F1D0
:10E040000D94B2F10D94B2F10D94B2F10D94B2F1C0
:10E050000D94B2F10D94B2F10D94B2F10D94B2F1B0
:10E060000D94B2F10D94B2F10D94B2F10D94B2F1A0
:10E070000D94B2F10D94B2F10D94B2F10D94B2F190
:10E080000D94B2F10D94B2F10D94B2F10D94B2F180
:10E090000D94B2F10D94B2F10D94B2F10D94B2F170
:10E0A0000D94B2F10D94B2F10D94B2F10D94B2F160
:10E0B0000D94B2F10D94B2F10D94B2F10D94B2F150
:10E0C0000D94B2F10D94B2F10D94B2F10D94B2F140
:10E0D0000D94B2F10D94B2F10D94B2F10D94B2F130
:10E0E0000D94B2F141546D656761323536300041AF
:10E0F000726475696E6F206578706C6F72657220DE
:10E1000073746B3530305632206279204D4C530099
:10E11000426F6F746C6F616465723E004875683F52
:10E1200000436F6D70696C6564206F6E203D200048
:10E130004350552054797065202020203D20005FF9
:10E140005F4156525F415243485F5F3D2000415658
:10E1500052204C696243205665723D20004743437C
:10E160002056657273696F6E203D20004350552024
:10E1700049442020202020203D20004C6F7720663D
:10E18000757365202020203D20004869676820665F
:10E190007573652020203D200045787420667573D6
:10E1A00065202020203D20004C6F636B2066757336
:10E1B000652020203D20004A616E20203120323031
:10E1C000313200312E362E3700342E332E330056A6
:10E1D00023202020414444522020206F7020636F70
:10E1E00064652020202020696E73747275637469E1
:10E1F0006F6E2061646472202020496E74657272B3
:10E20000757074006E6F20766563746F7200726A49
:10E210006D702020006A6D70200057686174207056
:10E220006F72743A00506F7274206E6F7420737541
:10E2300070706F72746564004D7573742062652030
:10E2400061206C6574746572002000577269747483
:10E25000696E672045450052656164696E672045B7
:10E26000450045452065727220636E743D00504F35
:10E27000525400303D5A65726F2061646472003FF1
:10E280003D43505520737461747300403D454550C3
:10E29000524F4D207465737400423D426C696E6B41
:10E2A000204C454400453D44756D70204545505215
:10E2B0004F4D00463D44756D7020464C415348001B
:10E2C000483D48656C70004C3D4C69737420492F83
:10E2D0004F20506F72747300513D51756974005234
:10E2E0003D44756D702052414D00563D73686F7707
:10E2F00020696E7465727275707420566563746FF0
:10E30000727300593D506F727420626C696E6B00BD
:10E310002A0011241FBECFEFD1E2DEBFCDBF01E046
:10E320000CBF12E0A0E0B2E0EAE0FDEF03E00BBFBB
:10E3300002C007900D92A030B107D9F712E0A0E01B
:10E34000B2E001C01D92AE30B107E1F70F9464F363
:10E350000D9483FE01E20EBF0FEF0DBF11241FBE0F
:10E360000D9464F30D9400F020E030E040ED57E0B0
:10E3700005C0FA013197F1F72F5F3F4F2817390792
:10E38000C0F308959C01442737FD4095542FDA01CE
:10E39000C901860F911DA11DB11DABBFFC01879165
:10E3A000882369F08093C6008091C00086FFFCCF6F
:10E3B0008091C00080648093C0006F5FE8CF0895B3
:10E3C0008DE08093C6008091C00086FFFCCF8091D5
:10E3D000C00080648093C0008AE08093C600809172
:10E3E000C00086FFFCCF8091C00080648093C00095
:10E3F00008950F94C2F10F94E0F10895FC0190810B
:10E40000992359F09093C6008091C00086FFFCCFFD
:10E410008091C00080648093C0003196992379F781
:10E420000895282F982F92959F70892F805D8A33A9
:10E4300008F0895F8093C6008091C00086FFFCCF02
:10E440008091C00080648093C000822F8F70982FCD
:10E45000905D9A3308F0995F9093C6008091C00058
:10E4600086FFFCCF8091C00080648093C000089537
:10E470009C01FB01853691051CF46330710594F015
:10E48000C90164E670E00F9424FE605D7F4F6093E5
:10E49000C6008091C00086FFFCCF8091C0008064E0
:10E4A0008093C0002B30310514F43297B4F0C901C9
:10E4B00064E670E00F9424FE6AE070E00F9424FE9E
:10E4C000605D7F4F6093C6008091C00086FFFCCFE7
:10E4D0008091C00080648093C000C9016AE070E050
:10E4E0000F9424FEC0968093C6008091C00086FFE2
:10E4F000FCCF8091C00080648093C00008951F937A
:10E50000182F8EE692EE60E00F94C2F11093C600D1
:10E510008091C00086FFFCCF8091C0008064809312
:10E52000C0000F94E0F11F9108952F923F924F92F7
:10E530005F926F927F928F929F92AF92BF92CF9293
:10E54000DF92EF92FF920F931F93DF93CF93CDB79C
:10E55000DEB762970FB6F894DEBF0FBECDBF382E80
:10E56000622ECA01DB015C016D01772420E2222EBC
:10E570002E010894411C511C8BC081E0A81680E03C
:10E58000B80681E0C80680E0D80628F0C601AA27B0
:10E59000BB270F9411F2BB27AD2D9C2D8B2D0F9413
:10E5A00011F28A2D0F9411F22092C6008091C000C2
:10E5B00086FFFCCF8091C00080648093C0009DE204
:10E5C0009093C6008091C00086FFFCCF8091C00070
:10E5D00080648093C0002092C6008091C00086FFB6
:10E5E000FCCF8091C00080648093C00019828601B6
:10E5F000750188249924A1E03A1651F03A1620F0CA
:10E60000B2E03B1661F409C00BBFF701779007C079
:10E61000C7010F946DFE782E02C0F7017080872D20
:10E620000F9411F22092C6008091C00086FFFCCFAB
:10E630008091C00080648093C000872D8052F401D7
:10E64000EF70F0708F3520F4E40DF51D708204C07A
:10E65000E40DF51D8EE280830894E11CF11C011D80
:10E66000111D0894811C911C90E18916910409F0F8
:10E67000C2CF80E190E0A0E0B0E0A80EB91ECA1EB3
:10E68000DB1E198AC2010F94FEF10F94E0F16A9427
:10E69000662009F072CF62960FB6F894DEBF0FBE07
:10E6A000CDBFCF91DF911F910F91FF90EF90DF9041
:10E6B000CF90BF90AF909F908F907F906F905F9022
:10E6C0004F903F902F9008952F923F924F925F92DC
:10E6D0006F927F928F929F92AF92BF92CF92DF9272
:10E6E000EF92FF920F931F93DF93CF93CDB7DEB7D7
:10E6F000CD53D1400FB6F894DEBF0FBECDBF01E2BF
:10E700000EBF0FEF0DBF94B7F894A89514BE80917B
:10E71000600088618093600010926000789493FF9D
:10E7200005C0E0910002F09101021995279A2F9AF5
:10E730008091C00082608093C00080E18093C4001B
:10E7400088E18093C1000000EE24FF24870194E05B
:10E75000A92EB12CCC24DD2424C0C5010197F1F7EA
:10E760000894E11CF11C011D111D21E2E2162EE4AA
:10E77000F20620E0020720E0120718F081E0C82E20
:10E78000D12CC801B70127EC3BE140E050E00F94E9
:10E7900037FE611571058105910519F485B1805821
:10E7A00085B98091C00087FD03C0C114D104A9F2CE
:10E7B000A6014F5F5F4FC25EDE4F59834883CE5143
:10E7C000D140C25EDE4F88819981CE51D140019700
:10E7D00011F00D9406FEC05DDE4F19821882C05301
:10E7E000D14060E0C15DDE4F1882CF52D140AA24F3
:10E7F000BB24C35DDE4F19821882CD52D140C05E6A
:10E80000DE4F188219821A821B82C052D140CE5C20
:10E81000DE4F188219821A821B82C253D140EE2425
:10E82000FF2487010BBFF70107911691C45CDE4FEF
:10E8300019830883CC53D1400D9401FEC25EDE4F94
:10E8400028813981CE51D1402130310509F52091FF
:10E85000C600C25EDE4F19821882CE51D14022C05E
:10E860002F5F3F4F4F4F5F4F213082E138078AE7DC
:10E87000480780E0580780F0C45CDE4FE881F981EA
:10E88000CC53D140EF5FFF4F19F0EE27FF270994DB
:10E8900020E030E040E050E08091C00087FFE0CF12
:10E8A0002091C600C35DDE4F48815981CD52D140D1
:10E8B0004F5F5F4FC35DDE4F59834883CD52D140D8
:10E8C000213209F067C64A30510508F063C6089442
:10E8D000A11CB11C53E0A516B10409F05DC600E00F
:10E8E00010E018C081E28093C6008091C00086FFCE
:10E8F000FCCF8091C00080648093C0002F5F3F4FA9
:10E900002931310579F70F94E0F10F5F1F4F053082
:10E91000110519F020E030E0E5CF10920A021092C4
:10E920000B0210920C0210920D021092060210922D
:10E93000070210920802109209021092020210922D
:10E94000030210920402109205028FEE90EE60E036
:10E950000F94F9F180E191EE60E00F94C2F18091A3
:10E96000C00087FFFCCF9091C600903608F09F75DD
:10E970009032B8F09093C6008091C00086FFFCCF23
:10E980008091C00080648093C000A0E2A093C60084
:10E990008091C00086FFFCCF8091C000806480938E
:10E9A000C000983409F4DBC19934B8F4923409F406
:10E9B0005DC1933458F4903319F1903308F4E7C5EE
:10E9C0009F33A1F1903409F0E2C5BDC0953409F43C
:10E9D00074C1963409F0DBC59CC1923509F42FC28D
:10E9E000933538F49C3409F4F9C1913509F0CFC559
:10E9F0001CC2963509F449C2993509F0C8C56BC4E3
:10EA000083E792EE62E00F94F9F110920602109201
:10EA10000702109208021092090210920A02109244
:10EA20000B0210920C0210920D0217C18FE792EEAA
:10EA300062E00F94F9F18FEE90EE60E00F94F9F13F
:10EA400081E291EE60E00F94C2F187EB91EE60E01D
:10EA50000F94F9F180E391EE60E00F94C2F184EE3F
:10EA600090EE60E00F94F9F18FE391EE60E00F9487
:10EA7000C2F186E090E061E070E00F9438F20F940C
:10EA8000E0F18DE591EE60E00F94C2F189EC91EE3A
:10EA900060E00F94F9F18EE491EE60E00F94C2F122
:10EAA00083EC91EE60E00F94F9F18CE691EE60E07A
:10EAB0000F94C2F18EE10F9411F288E90F9411F2D4
:10EAC00081E00F9411F20F94E0F18BE791EE60E09A
:10EAD0000F94C2F119E0E0E0F0E010935700E491E8
:10EAE0008E2F0F9411F20F94E0F18AE891EE60E01E
:10EAF0000F94C2F1E3E0F0E010935700E4918E2F01
:10EB00000F9411F20F94E0F189E991EE60E00F9417
:10EB1000C2F1E2E0F0E010935700E4918E2F0F94E1
:10EB200011F20F94E0F188EA91EE60E00F94C2F1E7
:10EB3000E1E0F0E0109357001491812F0F9411F24F
:10EB40000F94E0F107CF8BE892EE62E00F94F9F1B9
:10EB50008BE492EE60E00F94F9F10F94E0F100E0A5
:10EB600010E019C0C8016F2D0F9475FEFF2031F41D
:10EB700089E492EE60E00F94C2F10BC0F092C600FF
:10EB80008091C00086FFFCCF8091C000806480939C
:10EB9000C0000F5F1F4FC80181519F41AA2797FDF9
:10EBA000A095BA2FABBFFC01F790BAE2FB1621F09B
:10EBB000E2E000301E07B1F60F94E0F10F94E0F1AF
:10EBC00087E592EE60E00F94F9F10F94E0F1CC2428
:10EBD000DD2400E010E01EC0C8010F946DFEF82E89
:10EBE000882331F489E492EE60E00F94C2F10BC007
:10EBF0008093C6008091C00086FFFCCF8091C0004A
:10EC000080648093C000FE1419F00894C11CD11CCC
:10EC10000F5F1F4FC80181519F41AA2797FDA09503
:10EC2000BA2FABBFFC01E790FAE2EF1621F022E029
:10EC30000030120789F60F94E0F10F94E0F182E6BC
:10EC400092EE60E00F94C2F1C60161E070E00F94B3
:10EC500038F20F94E0F10F94E0F11092020210925A
:10EC60000302109204021092050274CE89E992EE1A
:10EC700062E00F94F9F1279A2F9A16C02F9880E03E
:10EC800090E0E0EDF7E03197F1F7019684369105D9
:10EC9000C1F72F9A80E090E0E0EDF7E03197F1F7CF
:10ECA000019684369105C1F78091C00087FFE6CFB9
:10ECB0008091C00087FFFCCF64C485EA92EE62E0D9
:10ECC0000F94F9F140910202509103026091040205
:10ECD0007091050281E020E10F9495F2809102028B
:10ECE00090910302A0910402B091050280509F4FC1
:10ECF000AF4FBF4F8093020290930302A093040290
:10ED0000B093050280509041A040B04008F422CE5C
:10ED1000A4CF83EB92EE62E00F94F9F140910602EA
:10ED200050910702609108027091090280E020E191
:10ED30000F9495F28091060290910702A09108022B
:10ED4000B091090280509F4FAF4FBF4F8093060292
:10ED500090930702A0930802B0930902FBCD80ECC8
:10ED600092EE62E00F94F9F183E792EE60E00F9487
:10ED7000F9F18FE792EE60E00F94F9F18BE892EEF3
:10ED800060E00F94F9F189E992EE60E00F94F9F1F7
:10ED900085EA92EE60E00F94F9F183EB92EE60E089
:10EDA0000F94F9F180EC92EE60E00F94F9F187ECAA
:10EDB00092EE60E00F94F9F188ED92EE60E00F942E
:10EDC000F9F18FED92EE60E00F94F9F18AEE92EE98
:10EDD00060E00F94F9F183E093EEB9CD87EC92EE09
:10EDE00062E00F94F9F181E40F947FF282E40F94D2
:10EDF0007FF283E40F947FF284E40F947FF285E442
:10EE00000F947FF286E40F947FF287E40F947FF2F1
:10EE100088E40F947FF28AE40F947FF28BE40F94DE
:10EE20007FF28CE40F947FF295CD88ED92EE62E054
:10EE30000F94F9F199249394AA24BB2409C48FED6B
:10EE400092EE62E00F94F9F140910A0250910B02A8
:10EE500060910C0270910D0282E020E10F9495F216
:10EE600080910A0290910B02A0910C02B0910D02C8
:10EE700080509F4FAF4FBF4F80930A0290930B0279
:10EE8000A0930C02B0930D0265CD8AEE92EE62E083
:10EE90000F94F9F184EE90EE60E00F94F9F18FECAD
:10EEA00091EE60E00F94F9F1662477244301CC5D84
:10EEB000DE4F19821882C452D140D401C301B695E5
:10EEC000A79597958795CA5DDE4F88839983AA8316
:10EED000BB83C652D140CC5DDE4FA881B981C452FC
:10EEE000D1401196CC5DDE4FB983A883C452D14086
:10EEF000CD0162E070E00F9438F2B0E2B093C6004A
:10EF00008091C00086FFFCCF8091C0008064809318
:10EF1000C000EDE2E093C6008091C00086FFFCCF08
:10EF20008091C00080648093C000F0E2F093C6003E
:10EF30008091C00086FFFCCF8091C00080648093E8
:10EF4000C000CA5DDE4FE880F9800A811B81C6528D
:10EF5000D140BB27A12F902F8F2D0F9411F2CA5DA6
:10EF6000DE4F8881C652D1400F9411F2E0E2FE2EAE
:10EF7000F092C6008091C00086FFFCCF8091C00057
:10EF800080648093C0000DE30093C6008091C000B0
:10EF900086FFFCCF8091C00080648093C00010E2A7
:10EFA0001093C6008091C00086FFFCCF8091C00006
:10EFB00080648093C0008BBEF3012791C65DDE4F55
:10EFC0002883CA52D140A22EBB24CC24DD2408942D
:10EFD000611C711C811C911C8BBEF3018791282E32
:10EFE0003324442455240894611C711C811C911CF9
:10EFF0008BBEF3013791C55DDE4F3883CB52D140D4
:10F000000894611C711C811C911C8BBEF3014791FB
:10F01000C45DDE4F4883CC52D1407DEFE72E7FEFB9
:10F02000F72E7FEF072F7FEF172F6E0C7F1C801EB0
:10F03000911E142D032DF22CEE24EA0CFB1C0C1D4A
:10F040001D1D0F9411F220E22093C6008091C00094
:10F0500086FFFCCF8091C00080648093C000C65DB5
:10F06000DE4F8881CA52D1400F9411F230E23093C2
:10F07000C6008091C00086FFFCCF8091C0008064F4
:10F080008093C000C45DDE4F8881CC52D1400F9484
:10F0900011F240E24093C6008091C00086FFFCCF91
:10F0A0008091C00080648093C000C55DDE4F888180
:10F0B000CB52D1400F9411F250E25093C600809190
:10F0C000C00086FFFCCF8091C00080648093C000A8
:10F0D0008FEFE8168FEFF80680E0080780E018074A
:10F0E00031F484E092EE60E00F94C2F1DFC0D80109
:10F0F000C7018070907CA070B0708050904CA04090
:10F10000B040D1F52FEF3FE340E050E0E222F322A0
:10F1100004231523CA5DDE4FA880B980CA80DB8036
:10F12000C652D140AE0CBF1CC01ED11EAA0CBB1CC7
:10F13000CC1CDD1C8EE092EE60E00F94C2F1BB2788
:10F14000A12F902F8F2D0F9411F28E2D0F9411F26D
:10F1500030E23093C6008091C00086FFFCCF8091E2
:10F16000C00080648093C0004EE34093C60080914D
:10F17000C00086FFFCCF87C08EE09EEFA0E0B0E02D
:10F18000E822F9220A231B239CE0E91694E9F906F8
:10F1900090E0090790E0190709F088C0C45DDE4FD0
:10F1A000A881CC52D140EA2EFF2400E010E0102FBD
:10F1B0000F2DFE2CEE24C55DDE4FB881CB52D14021
:10F1C000EB0EF11C011D111DD601C501817090705F
:10F1D000A070B070DC0199278827E80EF91E0A1F7D
:10F1E0001B1F20EF30E040E050E0A222B322C422F7
:10F1F000D522A1E1AA0CBB1CCC1CDD1CAA95D1F721
:10F20000EA0CFB1C0C1D1D1D81E090E0A0E0B0E0AD
:10F21000282239224A225B22F5E1220C331C441CAD
:10F22000551CFA95D1F7E20CF31C041D151D57016E
:10F230006801AA0CBB1CCC1CDD1C85E192EE60E0D1
:10F240000F94C2F1C801AA27BB270F9411F2BB2764
:10F25000A12F902F8F2D0F9411F28E2D0F9411F25C
:10F2600090E29093C6008091C00086FFFCCF809111
:10F27000C00080648093C000AEE3A093C60080917C
:10F28000C00086FFFCCF8091C00080648093C000E6
:10F29000C601AA27BB270F9411F2BB27AD2D9C2DC9
:10F2A0008B2D0F9411F28A2D0F9411F20F94E0F12F
:10F2B000CC5DDE4FE881F981C452D140F99709F461
:10F2C00049CB34E0E32EF12C012D112D6E0C7F1C67
:10F2D000801E911EF2CD83E093EE62E00F94F9F16F
:10F2E0008AE192EE60E00F94C2F18091C00087FF46
:10F2F000FCCF1091C6001F751093C6008091C0000E
:10F3000086FFFCCF8091C00080648093C0000F9482
:10F31000E0F1812F81548A3108F036C1163409F4A6
:10F3200095C0173490F4133409F44EC0143430F4FB
:10F330001134F1F0123409F01DC130C0143409F455
:10F3400059C0153409F016C16BC01A3409F4C4C091
:10F350001B3438F4173409F48FC0183409F00AC18B
:10F36000A1C01B3409F4D2C01C3409F003C1E8C0A9
:10F370008FEF81B90DC082B1809582B980E090E0B5
:10F38000E0EDF7E03197F1F70196883C9105C1F780
:10F390008091C00087FFEFCF12B8EFC08FEF84B924
:10F3A0000DC085B1809585B980E090E0E0EDF7E093
:10F3B0003197F1F70196883C9105C1F78091C00023
:10F3C00087FFEFCF15B8D9C08FEF87B90DC088B1CF
:10F3D000809588B980E090E0E0EDF7E03197F1F7B3
:10F3E0000196883C9105C1F78091C00087FFEFCF5F
:10F3F00018B8C3C08FEF8AB90DC08BB180958BB997
:10F4000080E090E0E0EDF7E03197F1F70196883C7D
:10F410009105C1F78091C00087FFEFCF1BB8ADC049
:10F420008FEF8DB90DC08EB180958EB980E090E0E0
:10F43000E0EDF7E03197F1F70196883C9105C1F7CF
:10F440008091C00087FFEFCF1EB897C08FEF80BBC1
:10F450000DC081B3809581BB80E090E0E0EDF7E0E6
:10F460003197F1F70196883C9105C1F78091C00072
:10F4700087FFEFCF11BA81C08FEF83BB0DC084B37C
:10F48000809584BB80E090E0E0EDF7E03197F1F704
:10F490000196883C9105C1F78091C00087FFEFCFAE
:10F4A00014BA6BC08FEF809301010FC080910201ED
:10F4B00080958093020180E090E0E0EDF7E03197E5
:10F4C000F1F70196883C9105C1F78091C00087FF54
:10F4D000EDCF1092020151C08FEF809304010FC055
:10F4E0008091050180958093050180E090E0E0ED3A
:10F4F000F7E03197F1F70196883C9105C1F78091CB
:10F50000C00087FFEDCF1092050137C08FEF8093C9
:10F5100007010FC08091080180958093080180E069
:10F5200090E0E0EDF7E03197F1F70196883C910526
:10F53000C1F78091C00087FFEDCF109208011DC078
:10F540008FEF80930A010FC080910B01809580930B
:10F550000B0180E090E0E0EDF7E03197F1F70196E4
:10F56000883C9105C1F78091C00087FFEDCF1092D4
:10F570000B0103C085E292EEEAC98091C00087FFCB
:10F58000FCCF8091C600E6C988E392EEE0C98CE129
:10F5900091EEDDC9AA24BB24933011F1943028F4F4
:10F5A000913089F09230B8F408C0953061F195300F
:10F5B000F0F0963009F048C043C02B3109F03EC945
:10F5C00091E06BE13BC96227C15DDE4F2883CF52DA
:10F5D000D14092E033C9B22FA0E0622793E02EC958
:10F5E000822F90E0A82BB92B622794E027C92E30F8
:10F5F00009F027C3622795E0C05DDE4F19821882AB
:10F60000C053D1401BC9E1E0F0E0EC0FFD1FC05D2D
:10F61000DE4F08811981C053D140E00FF11F2083D4
:10F620000F5F1F4FC05DDE4F19830883C053D14069
:10F6300062270A171B0709F001C9D80196E0FEC826
:10F64000261709F0FEC203C0973009F0F7C89924C5
:10F650009981933109F412C19431C8F4963009F4B8
:10F66000D8C0973050F4923009F406C1933009F4B1
:10F670006DC0913009F047C253C0913109F477C091
:10F68000923108F0BBC0903109F03DC2F5C098310D
:10F6900009F487C0993150F4953109F4EFC09531E0
:10F6A00008F4B4C1963109F02EC2B0C19A3109F400
:10F6B0006CC09A3108F491C09B3109F45BC09D3154
:10F6C00009F021C29D81903359F48F81882311F470
:10F6D0009EE11CC0813011F091E018C098E916C07D
:10F6E000892F807591F0903539F4E0E0F0E089E001
:10F6F0008093570094910AC0983539F4E3E0F0E024
:10F7000089E080935700949101C090E01A821B8297
:10F710008D818C831D829E831F8227E030E0F7C19C
:10F720001A8288E08B8381E48C8386E58D8382E571
:10F730008E8389E48F8383E5888780E589878FE5D9
:10F740008A8782E38B872BE030E0E1C18A818139AF
:10F7500041F0823941F0803911F48FE005C080E03A
:10F7600003C082E001C08AE01A828B8344C09924DE
:10F77000939482C08D81882311F48EE12CC0813056
:10F7800011F081E028C088E926C01A82E1E0F0E0AB
:10F7900089E08093570084918B831C8224E030E0C1
:10F7A000B6C18B81803589F48C81883039F4E2E0F0
:10F7B000F0E089E08093570084910DC0E0E0F0E034
:10F7C00089E080935700849106C0E3E0F0E089E08F
:10F7D0008093570084911A82DFCF8D81836C99E0EA
:10F7E000E1E0F0E0082E90935700E89507B600FCA2
:10F7F000FDCF1A821B8223E030E089C180EC8A832E
:10F80000CE5CDE4F188219821A821B82C253D1400D
:10F810007CC18A8190E0A0E0B0E0582F44273327D4
:10F8200022278B8190E0A0E0B0E0DC0199278827B7
:10F83000282B392B4A2B5B2B8D8190E0A0E0B0E088
:10F84000282B392B4A2B5B2B8C8190E0A0E0B0E079
:10F85000BA2FA92F982F8827282B392B4A2B5B2BBF
:10F86000220F331F441F551FC05EDE4F288339838C
:10F870004A835B83C052D1401A8247C13A81C95C36
:10F88000DE4F3883C753D140CA5CDE4F1882C6535F
:10F89000D1408B81A82FB0E0CA5CDE4F48815981EE
:10F8A000C653D140A42BB52B933109F077C0CE5C61
:10F8B000DE4F088119812A813B81C253D14000303B
:10F8C00040EC140743E0240740E03407F0F483E001
:10F8D000F80120935B0080935700E89507B600FC81
:10F8E000FDCFCE5CDE4F088119812A813B81C25356
:10F8F000D14000501F4F2F4F3F4FCE5CDE4F08834B
:10F9000019832A833B83C253D140C05EDE4F4881B6
:10F9100059816A817B81C052D1408E01055F1F4FA2
:10F9200031E0F801808121810E5F1F4FC75CDE4FFF
:10F930002883C953D140C85CDE4F1882C853D140D8
:10F9400090E0C85CDE4FE880F980C853D1408E2932
:10F950009F290C01FA0160935B0030935700E895F2
:10F9600011244E5F5F4F6F4F7F4F1297D1F685E0A6
:10F97000C05EDE4F088119812A813B81C052D1408F
:10F98000F80120935B0080935700E89507B600FCD0
:10F99000FDCF81E180935700E8952EC0C05EDE4F19
:10F9A000288139814A815B81C052D140FE013B965A
:10F9B00011977D0100E010E00894E11CF11C011D8D
:10F9C000111DE20EF31E041F151F21BDBB27A52F1D
:10F9D000942F832F82BD2F5F3F4F4F4F5F4F8191F9
:10F9E00080BDFA9AF99AF999FECF2E153F05400786
:10F9F000510759F7BA01A9011A82C05EDE4F488348
:10FA000059836A837B83C052D1407FC01A81C55C11
:10FA1000DE4F1883CB53D140C65CDE4F1882CA53E9
:10FA2000D1408B81C82EDD24C65CDE4F2881398110
:10FA3000CA53D140C22AD32A1A828981BE016D5F7E
:10FA40007F4F843121F59601C05EDE4FE880F9805A
:10FA50000A811B81C052D1400BBFF701879196915B
:10FA6000DB018C9311969C936E5F7F4FD801C70189
:10FA70000296A11DB11DC05EDE4F88839983AA83C3
:10FA8000BB83C052D14022503040F1F636C0C05E38
:10FA9000DE4F288139814A815B81C052D140089470
:10FAA000C108D108760100E010E00894C11CD11C07
:10FAB0000894E11CF11C011D111DE20EF31E041F30
:10FAC000151F21BDBB27A52F942F832F82BD2F5F2C
:10FAD0003F4F4F4F5F4FF89A80B5DB018D93BD01CB
:10FAE0002E153F054007510761F7C05EDE4F2883A2
:10FAF00039834A835B83C052D14096012D5F3F4FCB
:10FB0000FB01108204C080EC8A8322E030E08BE1AC
:10FB10008093C6008091C00086FFFCCF8091C0001A
:10FB200080648093C000C15DDE4FF881CF52D14028
:10FB3000F093C6008091C00086FFFCCF8091C0008A
:10FB400080648093C000432F3093C6008091C00032
:10FB500086FFFCCF8091C00080648093C000922F0C
:10FB60002093C6008091C00086FFFCCF8091C0002A
:10FB700080648093C0008EE08093C6008091C000B6
:10FB800086FFFCCF8091C00080648093C00065E157
:10FB9000C15DDE4FE880CF52D1406E2569276427D2
:10FBA000FE01319610C090819093C6008091C000F4
:10FBB00086FFFCCF31968091C00080648093C000A6
:10FBC0006927215030402115310569F76093C6003F
:10FBD0008091C00086FFFCCF8091C000806480933C
:10FBE000C00085B1805885B9992081F4C15DDE4F90
:10FBF0000881CF52D1400F5FC15DDE4F0883CF52E5
:10FC0000D14090E0A0E0B0E00D941EF427982F982A
:10FC100080E090E020ED37E0F9013197F1F70196AF
:10FC200084369105C9F700008091C0008D7F8093D4
:10FC3000C00081E180935700E895EE27FF270994E3
:10FC4000FFCF90E00D941EF497FB092E07260AD0F3
:10FC500077FD04D02ED006D000201AF4709561955F
:10FC60007F4F0895F6F7909581959F4F0895A1E2F3
:10FC70001A2EAA1BBB1BFD010DC0AA1FBB1FEE1F26
:10FC8000FF1FA217B307E407F50720F0A21BB30B71
:10FC9000E40BF50B661F771F881F991F1A9469F7ED
:10FCA00060957095809590959B01AC01BD01CF0149
:10FCB0000895AA1BBB1B51E107C0AA1FBB1FA617B3
:10FCC000B70710F0A61BB70B881F991F5A95A9F705
:10FCD00080959095BC01CD010895F999FECF92BD14
:10FCE00081BDF89A992780B50895262FF999FECFFE
:10FCF0001FBA92BD81BD20BD0FB6F894FA9AF99A49
:0AFD00000FBE01960895F894FFCF9E
:040000033000E000E9
:00000001FF
