:020000023000CC
:10E000000D94DFF20D9408F30D9408F30D9408F3CA
:10E010000D9408F30D9408F30D9408F30D9408F390
:10E020000D9408F30D9408F30D9408F30D9408F380
:10E030000D9408F30D9408F30D9408F30D9408F370
:10E040000D9408F30D9408F30D9408F30D9408F360
:10E050000D9408F30D9408F30D9408F30D9408F350
:10E060000D9408F30D9408F30D9408F30D9408F340
:10E070000D9408F30D9408F30D9408F30D9408F330
:10E080000D9408F30D9408F30D9408F30D9408F320
:10E090000D9408F30D9408F30D9408F30D9408F310
:10E0A0000D9408F30D9408F30D9408F30D9408F300
:10E0B0000D9408F30D9408F30D9408F30D9408F3F0
:10E0C0000D9408F30D9408F30D9408F30D9408F3E0
:10E0D0000D9408F30D9408F30D9408F30D9408F3D0
:10E0E0000D9408F341546D65676132353630004157
:10E0F000726475696E6F206578706C6F72657220DE
:10E1000073746B3530305632206279204D4C530099
:10E11000426F6F746C6F616465723E004875683F52
:10E1200000436F6D70696C6564206F6E203D200048
:10E130004350552054797065202020203D20005FF9
:10E140005F4156525F415243485F5F3D2000415658
:10E1500052204C696243205665723D20004743437C
:10E160002056657273696F6E203D20004350552024
:10E1700049442020202020203D20004C6F7720663D
:10E18000757365202020203D20004869676820665F
:10E190007573652020203D200045787420667573D6
:10E1A00065202020203D20004C6F636B2066757336
:10E1B000652020203D20004E6F7620313020323007
:10E1C000313000312E362E3700342E332E330056A8
:10E1D00023202020414444522020206F7020636F70
:10E1E00064652020202020696E73747275637469E1
:10E1F0006F6E2061646472202020496E74657272B3
:10E20000757074006E6F20766563746F7200726A49
:10E210006D702020006A6D70200057686174207056
:10E220006F72743A00506F7274206E6F7420737541
:10E2300070706F72746564004D7573742062652030
:10E2400061206C6574746572002000577269747483
:10E25000696E672045450052656164696E672045B7
:10E26000450045452065727220636E743D00504F35
:10E27000525400303D5A65726F2061646472003FF1
:10E280003D43505520737461747300403D454550C3
:10E29000524F4D207465737400423D426C696E6B41
:10E2A000204C454400453D44756D70204545505215
:10E2B0004F4D00463D44756D7020464C415348001B
:10E2C000483D48656C70004C3D4C69737420492F83
:10E2D0004F20506F72747300513D51756974005234
:10E2E0003D44756D702052414D00563D73686F7707
:10E2F00020696E7465727275707420566563746FF0
:10E30000727300593D506F727420626C696E6B00BD
:10E310002A00524553455400494E543000494E544A
:10E320003100494E543200494E543300494E543462
:10E3300000494E543500494E543600494E5437007A
:10E340005043494E5430005043494E5431005043DD
:10E35000494E5432005744540054494D45523020E0
:10E36000434F4D50410054494D45523020434F4D8D
:10E3700050420054494D455230204F5646005449B2
:10E380004D45523120434150540054494D4552317E
:10E3900020434F4D50410054494D45523120434F89
:10E3A0004D50420054494D45523120434F4D50434A
:10E3B0000054494D455231204F56460054494D4571
:10E3C000523220434F4D50410054494D4552322066
:10E3D000434F4D50420054494D455232204F56460E
:10E3E0000054494D45523320434150540054494D47
:10E3F00045523320434F4D50410054494D4552330F
:10E4000020434F4D50420054494D45523320434F15
:10E410004D50430054494D455233204F5646005409
:10E42000494D45523420434150540054494D4552C2
:10E430003420434F4D50410054494D455234204300
:10E440004F4D50420054494D45523420434F4D509A
:10E45000430054494D455234204F56460054494DCF
:10E4600045523520434150540054494D45523520C2
:10E47000434F4D50410054494D45523520434F4D77
:10E4800050420054494D45523520434F4D504300B2
:10E4900054494D455235204F56460055534152542C
:10E4A0003020525800555341525430205544524563
:10E4B0000055534152543020545800555341525442
:10E4C0003120525800555341525431205544524541
:10E4D0000055534152543120545800555341525421
:10E4E000322052580055534152543220554452451F
:10E4F0000055534152543220545800555341525400
:10E5000033205258005553415254332055445245FC
:10E51000005553415254332054580053504920530E
:10E5200054430041444300414E414C4F4720434F28
:10E530004D5000454520524541445900545749002B
:10E5400053504D205245414459002A0012E318E32C
:10E550001DE322E327E32CE331E336E33BE340E32F
:10E5600047E34EE355E3BCE3C9E3D6E37EE38AE346
:10E5700097E3A4E3B1E359E366E373E31BE59BE4AC
:10E58000A5E4B1E427E523E533E5E1E3EDE3FAE3D0
:10E5900007E414E4BBE4C5E4D1E43CE540E51FE452
:10E5A0002BE438E445E452E45DE469E476E483E492
:10E5B00090E4DBE4E5E4F1E4FBE405E511E5112496
:10E5C0001FBECFEFD1E2DEBFCDBF01E00CBF12E036
:10E5D000A0E0B2E0ECEEFFEF03E00BBF02C007905B
:10E5E0000D92A030B107D9F712E0A0E0B2E001C06F
:10E5F0001D92AC30B107E1F70F94E4F40D94F4FFF1
:10E6000001E20EBF0FEF0DBF11241FBE0D94E4F405
:10E610000D9400F020E030E040ED57E005C0FA0135
:10E620003197F1F72F5F3F4F28173907C0F308954F
:10E630009C01442737FD4095542FDA01C901860F0C
:10E64000911DA11DB11DABBFFC018791882369F00D
:10E650008093C6008091C00086FFFCCF8091C000EF
:10E6600080648093C0006F5FE8CF08958DE0809351
:10E67000C6008091C00086FFFCCF8091C0008064FE
:10E680008093C0008AE08093C6008091C00086FF1E
:10E69000FCCF8091C00080648093C00008950F94E7
:10E6A00018F30F9436F30895FC019081992359F0E3
:10E6B0009093C6008091C00086FFFCCF8091C0007F
:10E6C00080648093C0003196992379F70895282FAC
:10E6D000982F92959F70892F805D8A3308F0895F0B
:10E6E0008093C6008091C00086FFFCCF8091C0005F
:10E6F00080648093C000822F8F70982F905D9A3332
:10E7000008F0995F9093C6008091C00086FFFCCF0F
:10E710008091C00080648093C00008959C01FB013B
:10E72000853691051CF46330710594F0C90164E6E7
:10E7300070E00F9495FF605D7F4F6093C6008091FD
:10E74000C00086FFFCCF8091C00080648093C00031
:10E750002B30310514F43297B4F0C90164E670E04F
:10E760000F9495FF6AE070E00F9495FF605D7F4F16
:10E770006093C6008091C00086FFFCCF8091C000EE
:10E7800080648093C000C9016AE070E00F9495FF37
:10E79000C0968093C6008091C00086FFFCCF809118
:10E7A000C00080648093C0000895282F27702064E3
:10E7B00020937C0020917B0086958695869590E03D
:10E7C0008170907033E0880F991F3A95E1F7277FA9
:10E7D000282B20937B0080917A00806480937A00BC
:10E7E00080917A0086FDFCCF2091780040917900DD
:10E7F000942F80E030E0282B392BC90108951F9316
:10E80000182F8EE692EE60E00F9418F31093C60076
:10E810008091C00086FFFCCF8091C000806480930F
:10E82000C0000F9436F31F9108952F923F924F929C
:10E830005F926F927F928F929F92AF92BF92CF9290
:10E84000DF92EF92FF920F931F93DF93CF93CDB799
:10E85000DEB762970FB6F894DEBF0FBECDBF382E7D
:10E86000622ECA01DB015C016D01772460E2262E75
:10E870002E010894411C511C8BC081E0A81680E039
:10E88000B80681E0C80680E0D80628F0C601AA27AD
:10E89000BB270F9467F3BB27AD2D9C2D8B2D0F94B9
:10E8A00067F38A2D0F9467F32092C6008091C00011
:10E8B00086FFFCCF8091C00080648093C0009DE201
:10E8C0009093C6008091C00086FFFCCF8091C0006D
:10E8D00080648093C0002092C6008091C00086FFB3
:10E8E000FCCF8091C00080648093C00019828601B3
:10E8F000750188249924A1E03A1651F03A1620F0C7
:10E90000B2E03B1661F409C00BBFF701779007C076
:10E91000C7010F94DEFF782E02C0F7017080872DAB
:10E920000F9467F32092C6008091C00086FFFCCF51
:10E930008091C00080648093C000872D8052F401D4
:10E94000EF70F0708F3520F4E40DF51D708204C077
:10E95000E40DF51D8EE280830894E11CF11C011D7D
:10E96000111D0894811C911C90E18916910409F0F5
:10E97000C2CF80E190E0A0E0B0E0A80EB91ECA1EB0
:10E98000DB1E198AC2010F9454F30F9436F36A9474
:10E99000662009F072CF62960FB6F894DEBF0FBE04
:10E9A000CDBFCF91DF911F910F91FF90EF90DF903E
:10E9B000CF90BF90AF909F908F907F906F905F901F
:10E9C0004F903F902F9008952F923F924F925F92D9
:10E9D0006F927F928F929F92AF92BF92CF92DF926F
:10E9E000EF92FF920F931F93DF93CF93CDB7DEB7D4
:10E9F000CF53D1400FB6F894DEBF0FBECDBF01E2BA
:10EA00000EBF0FEF0DBF279A2F9A8091C000826032
:10EA10008093C00080E18093C40088E18093C100AE
:10EA20000000EE24FF24870184E0A82EB12CCC2422
:10EA3000DD2424C0C5010197F1F70894E11CF11C05
:10EA4000011D111D21E9E2162FE5F20621E0020762
:10EA500020E0120718F0B1E0CB2ED12CC801B7018D
:10EA600027EC3BE140E050E00F94A8FF61157105F1
:10EA70008105910519F485B1805885B98091C00050
:10EA800087FD03C0C114D104A9F2A6014F5F5F4FF7
:10EA9000C25EDE4F59834883CE51D140C25EDE4F05
:10EAA00068817981CE51D1406130710511F00D94AA
:10EAB00077FFCE5CDE4F19821882C253D14060E0EE
:10EAC000CF5CDE4F1882C153D140AA24BB24C15D64
:10EAD000DE4F19821882CF52D140C05EDE4F1882BD
:10EAE00019821A821B82C052D140CC5CDE4F188240
:10EAF00019821A821B82C453D14080E090E0A0E0CA
:10EB0000B0E0ABBFFC01A791B691C25CDE4FB98308
:10EB1000A883CE53D1400D9472FFC25EDE4FE881D0
:10EB2000F981CE51D140319709F52091C600C25EDE
:10EB3000DE4F19821882CE51D14022C02F5F3F4F45
:10EB40004F4F5F4F2130F2E13F07FAE74F07F0E008
:10EB50005F0780F0C25CDE4F08811981CE53D1403F
:10EB60000F5F1F4F19F0EE27FF27099420E030E0D8
:10EB700040E050E08091C00087FFE0CF2091C600C8
:10EB8000C15DDE4F48815981CF52D1404F5F5F4F09
:10EB9000C15DDE4F59834883CF52D140213209F005
:10EBA0009CC64A30510508F098C60894A11CB11CB7
:10EBB00053E0A516B10409F092C600E010E018C0B9
:10EBC00061E26093C6008091C00086FFFCCF809117
:10EBD000C00080648093C0002F5F3F4F2931310512
:10EBE00079F70F9436F30F5F1F4F0530110519F0B9
:10EBF00020E030E0E5CF1092080210920902109256
:10EC00000A0210920B021092040210920502109256
:10EC10000602109207021092000210920102109256
:10EC20000202109203028FEE90EE60E00F944FF319
:10EC300080E191EE60E00F9418F38091C00087FFAF
:10EC4000FCCF9091C600903608F09F759032B8F0D6
:10EC50009093C6008091C00086FFFCCF8091C000D9
:10EC600080648093C00080E28093C6008091C000E1
:10EC700086FFFCCF8091C00080648093C0009834F0
:10EC800009F4DBC19934B8F4923409F45DC19334CA
:10EC900058F4903319F1903308F41CC69F33A1F156
:10ECA000903409F017C6BDC0953409F474C1963488
:10ECB00009F010C69CC1923509F42FC2933538F47F
:10ECC0009C3409F4F9C1913509F004C61CC296358B
:10ECD00009F449C2993509F0FDC5A0C483E792EE55
:10ECE00062E00F944FF3109204021092050210920A
:10ECF0000602109207021092080210920902109266
:10ED00000A0210920B0217C18FE792EE62E00F9495
:10ED10004FF38FEE90EE60E00F944FF381E291EEAF
:10ED200060E00F9418F387EB91EE60E00F944FF3DF
:10ED300080E391EE60E00F9418F384EE90EE60E0D3
:10ED40000F944FF38FE391EE60E00F9418F386E099
:10ED500090E061E070E00F948EF30F9436F38DE550
:10ED600091EE60E00F9418F389EC91EE60E00F945F
:10ED70004FF38EE491EE60E00F9418F383EC91EE84
:10ED800060E00F944FF38CE691EE60E00F9418F37F
:10ED90008EE10F9467F388E90F9467F381E00F9495
:10EDA00067F30F9436F38BE791EE60E00F9418F35E
:10EDB00019E0E0E0F0E010935700E4918E2F0F94FB
:10EDC00067F30F9436F38AE891EE60E00F9418F33E
:10EDD000E3E0F0E010935700E4918E2F0F9467F377
:10EDE0000F9436F389E991EE60E00F9418F3E2E0B6
:10EDF000F0E010935700E4918E2F0F9467F30F9477
:10EE000036F388EA91EE60E00F9418F3E1E0F0E069
:10EE1000109357001491812F0F9467F30F9436F3DA
:10EE200007CF8BE892EE62E00F944FF38BE492EE03
:10EE300060E00F944FF30F9436F300E010E019C038
:10EE4000C8016F2D0F94E6FFFF2031F489E492EEA4
:10EE500060E00F9418F30BC0F092C6008091C000E0
:10EE600086FFFCCF8091C00080648093C0000F5F5C
:10EE70001F4FC80181519F41AA2797FDA095BA2F26
:10EE8000ABBFFC01F7907AE2F71621F082E0003088
:10EE90001807B1F60F9436F30F9436F387E592EE28
:10EEA00060E00F944FF30F9436F300E010E0CC24B1
:10EEB000DD241EC0C8010F94DEFFF82E882331F434
:10EEC00089E492EE60E00F9418F30BC08093C600C3
:10EED0008091C00086FFFCCF8091C0008064809349
:10EEE000C000FE1419F00894C11CD11C0F5F1F4F05
:10EEF000C80181519F41AA2797FDA095BA2FABBFAA
:10EF0000FC01E7909AE2E91621F0A2E000301A072E
:10EF100089F60F9436F30F9436F382E692EE60E0B2
:10EF20000F9418F3C60161E070E00F948EF30F9414
:10EF300036F30F9436F310920002109201021092F1
:10EF400002021092030274CE89E992EE62E00F94FD
:10EF50004FF3279A2F9A16C02F9880E090E0E0EDAB
:10EF6000F7E03197F1F7019684369105C1F72F9AB2
:10EF700080E090E0E0EDF7E03197F1F7019684361C
:10EF80009105C1F78091C00087FFE6CF8091C00056
:10EF900087FFFCCF99C485EA92EE62E00F944FF3AD
:10EFA00040910002509101026091020270910302AF
:10EFB00081E020E10F9415F480910002909101020C
:10EFC000A0910202B091030280509F4FAF4FBF4FFC
:10EFD0008093000290930102A0930202B093030277
:10EFE00080509041A040B04008F422CEA4CF83EBE3
:10EFF00092EE62E00F944FF34091040250910502AB
:10F00000609106027091070280E020E10F9415F4F0
:10F010008091040290910502A0910602B09107022E
:10F0200080509F4FAF4FBF4F8093040290930502D3
:10F03000A0930602B0930702FBCD80EC92EE62E053
:10F040000F944FF383E792EE60E00F944FF38FE756
:10F0500092EE60E00F944FF38BE892EE60E00F9435
:10F060004FF389E992EE60E00F944FF385EA92EE58
:10F0700060E00F944FF383EB92EE60E00F944FF358
:10F0800080EC92EE60E00F944FF387EC92EE60E03C
:10F090000F944FF388ED92EE60E00F944FF38FEDF5
:10F0A00092EE60E00F944FF38AEE92EE60E00F94E0
:10F0B0004FF383E093EEB9CD87EC92EE62E00F94CC
:10F0C0004FF381E40F94FFF382E40F94FFF383E4A2
:10F0D0000F94FFF384E40F94FFF385E40F94FFF3A0
:10F0E00086E40F94FFF387E40F94FFF388E40F9412
:10F0F000FFF38AE40F94FFF38BE40F94FFF38CE4A7
:10F100000F94FFF395CD88ED92EE62E00F944FF3EC
:10F1100099249394AA24BB2449C48FED92EE62E013
:10F120000F944FF3409108025091090260910A0236
:10F1300070910B0282E020E10F9415F48091080297
:10F1400090910902A0910A02B0910B0280509F4F4A
:10F15000AF4FBF4F8093080290930902A0930A0219
:10F16000B0930B0265CD8AEE92EE62E00F944FF3FE
:10F1700084EE90EE60E00F944FF38FEC91EE60E040
:10F180000F944FF30CE415EECC5DDE4F198308832A
:10F19000C452D140662477244301CA5DDE4F1982F0
:10F1A0001882C652D140A4019301569547953795D0
:10F1B0002795C85DDE4F288339834A835B83C85215
:10F1C000D140CA5DDE4F48815981C652D1404F5F60
:10F1D0005F4FCA5DDE4F59834883C652D140CA0192
:10F1E00062E070E00F948EF350E25093C60080917D
:10F1F000C00086FFFCCF8091C00080648093C00077
:10F200006DE26093C6008091C00086FFFCCF8091C4
:10F21000C00080648093C00070E27093C60080914B
:10F22000C00086FFFCCF8091C00080648093C00046
:10F23000C85DDE4FE880F9800A811B81C852D14049
:10F24000BB27A12F902F8F2D0F9467F3C85DDE4F42
:10F250008881C852D1400F9467F3E0E2FE2EF0920D
:10F26000C6008091C00086FFFCCF8091C000806402
:10F270008093C0000DE30093C6008091C00086FF1C
:10F28000FCCF8091C00080648093C00010E2109396
:10F29000C6008091C00086FFFCCF8091C0008064D2
:10F2A0008093C0008BBEF3012791C45DDE4F28839D
:10F2B000CC52D140A22EBB24CC24DD240894611C66
:10F2C000711C811C911C8BBEF3018791282E332465
:10F2D000442455240894611C711C811C911C8BBE14
:10F2E000F3013791C35DDE4F3883CD52D14008948E
:10F2F000611C711C811C911C8BBEF3014791C25D86
:10F30000DE4F4883CE52D1407DEFE72E7FEFF72EC0
:10F310007FEF072F7FEF172F6E0C7F1C801E911E33
:10F32000142D032DF22CEE24EA0CFB1C0C1D1D1DCC
:10F330000F9467F320E22093C6008091C00086FFFF
:10F34000FCCF8091C00080648093C000C45DDE4F1C
:10F350008881CC52D1400F9467F330E23093C600DD
:10F360008091C00086FFFCCF8091C00080648093B4
:10F37000C000C25DDE4F8881CE52D1400F9467F34A
:10F3800040E24093C6008091C00086FFFCCF809190
:10F39000C00080648093C000C35DDE4F8881CD5281
:10F3A000D1400F9467F350E25093C6008091C000A3
:10F3B00086FFFCCF8091C00080648093C0006FEF17
:10F3C000E6166FEFF60660E0060760E0160731F418
:10F3D00084E092EE60E00F9418F3DFC0D801C7011B
:10F3E0008070907CA070B0708050904CA040B04075
:10F3F000D1F58FEF9FE3A0E0B0E0E822F9220A23E5
:10F400001B23C85DDE4FA880B980CA80DB80C8524C
:10F41000D140AE0CBF1CC01ED11EAA0CBB1CCC1C04
:10F42000DD1C8EE092EE60E00F9418F3BB27A12F55
:10F43000902F8F2D0F9467F38E2D0F9467F390E22A
:10F440009093C6008091C00086FFFCCF8091C000E1
:10F4500080648093C000AEE3A093C6008091C0009A
:10F4600086FFFCCF87C02EE03EEF40E050E0E22276
:10F47000F322042315233CE0E31634E9F30630E0DD
:10F48000030730E0130709F088C0C25DDE4F4881F2
:10F49000CE52D140E42EFF2400E010E0102F0F2DBB
:10F4A000FE2CEE24C35DDE4F5881CD52D140E50ED7
:10F4B000F11C011D111DD601C50181709070A07055
:10F4C000B070DC0199278827E80EF91E0A1F1B1F60
:10F4D00060EF70E080E090E0A622B722C822D92237
:10F4E000F1E1AA0CBB1CCC1CDD1CFA95D1F7EA0C8F
:10F4F000FB1C0C1D1D1D81E090E0A0E0B0E0282267
:10F5000039224A225B22E5E1220C331C441C551CA3
:10F51000EA95D1F7E20CF31C041D151D5701680193
:10F52000AA0CBB1CCC1CDD1C85E192EE60E00F94A4
:10F5300018F3C801AA27BB270F9467F3BB27A12F95
:10F54000902F8F2D0F9467F38E2D0F9467F390E219
:10F550009093C6008091C00086FFFCCF8091C000D0
:10F5600080648093C000AEE3A093C6008091C00089
:10F5700086FFFCCF8091C00080648093C000C601EC
:10F58000AA27BB270F9467F3BB27AD2D9C2D8B2D8E
:10F590000F9467F38A2D0F9467F3B0E2B093C6001F
:10F5A0008091C00086FFFCCF8091C0008064809372
:10F5B000C000CC5DDE4FE881F981C452D140CF015B
:10F5C000AA2797FDA095BA2FABBFFC018791969112
:10F5D00060E00F9418F30F9436F3CC5DDE4F088192
:10F5E0001981C452D1400E5F1F4FCC5DDE4F19838D
:10F5F0000883C452D140CA5DDE4F28813981C6528A
:10F60000D1402933310509F413CB44E050E060E0E8
:10F6100070E0640E751E861E971EC5CD83E093EEC6
:10F6200062E00F944FF38AE192EE60E00F9418F3DA
:10F630008091C00087FFFCCF1091C6001F7510930A
:10F64000C6008091C00086FFFCCF8091C00080641E
:10F650008093C0000F9436F3812F81548A3108F0D3
:10F6600036C1163409F495C0173490F4133409F4F4
:10F670004EC0143430F41134F1F0123409F01DC1CD
:10F6800030C0143409F459C0153409F016C16BC0E8
:10F690001A3409F4C4C01B3438F4173409F48FC089
:10F6A000183409F00AC1A1C01B3409F4D2C01C34BB
:10F6B00009F003C1E8C08FEF81B90DC082B1809518
:10F6C00082B980E090E0E0EDF7E03197F1F7019644
:10F6D000883C9105C1F78091C00087FFEFCF12B839
:10F6E000EFC08FEF84B90DC085B1809585B980E0FA
:10F6F00090E0E0EDF7E03197F1F70196883C910555
:10F70000C1F78091C00087FFEFCF15B8D9C08FEF48
:10F7100087B90DC088B1809588B980E090E0E0EDB0
:10F72000F7E03197F1F70196883C9105C1F7809198
:10F73000C00087FFEFCF18B8C3C08FEF8AB90DC0E4
:10F740008BB180958BB980E090E0E0EDF7E03197E8
:10F75000F1F70196883C9105C1F78091C00087FFC1
:10F76000EFCF1BB8ADC08FEF8DB90DC08EB18095B6
:10F770008EB980E090E0E0EDF7E03197F1F7019687
:10F78000883C9105C1F78091C00087FFEFCF1EB87C
:10F7900097C08FEF80BB0DC081B3809581BB80E0A7
:10F7A00090E0E0EDF7E03197F1F70196883C9105A4
:10F7B000C1F78091C00087FFEFCF11BA81C08FEFF2
:10F7C00083BB0DC084B3809584BB80E090E0E0ED06
:10F7D000F7E03197F1F70196883C9105C1F78091E8
:10F7E000C00087FFEFCF14BA6BC08FEF8093010189
:10F7F0000FC08091020180958093020180E090E02B
:10F80000E0EDF7E03197F1F70196883C9105C1F7FB
:10F810008091C00087FFEDCF1092020151C08FEFA1
:10F82000809304010FC080910501809580930501AC
:10F8300080E090E0E0EDF7E03197F1F70196883C49
:10F840009105C1F78091C00087FFEDCF10920501AF
:10F8500037C08FEF809307010FC08091080180951A
:10F860008093080180E090E0E0EDF7E03197F1F758
:10F870000196883C9105C1F78091C00087FFEDCFCC
:10F88000109208011DC08FEF80930A010FC0809174
:10F890000B01809580930B0180E090E0E0EDF7E0B4
:10F8A0003197F1F70196883C9105C1F78091C0002E
:10F8B00087FFEDCF10920B0103C085E292EEB5C930
:10F8C0008091C00087FFFCCF8091C600B1C988E35A
:10F8D00092EEABC98CE191EEA8C9AA24BB24933067
:10F8E00061F1943028F4913089F0923008F508C025
:10F8F0009530B1F1953040F1963009F053C04EC0CB
:10F900002B3109F00AC991E06BE107C9213041F0C0
:10F91000CF5CDE4F5881C153D140251709F002C397
:10F920006227CF5CDE4F2883C153D14092E0F5C8F7
:10F93000B22FA0E0622793E0F0C8822F90E0A82BBE
:10F94000B92B622794E0E9C82E3009F0EBC2622798
:10F9500095E0CE5CDE4F19821882C253D140DDC8DB
:10F96000E1E0F0E0EC0FFD1FCE5CDE4FE880F980B7
:10F97000C253D140EE0DFF1D208387010F5F1F4F43
:10F98000CE5CDE4F19830883C253D14062270A1729
:10F990001B0709F0C2C8D80196E0BFC8261709F0B6
:10F9A000C1C203C0973009F0B8C899248981833156
:10F9B00009F4FCC08431C8F4863009F4C2C0873031
:10F9C00050F4823009F4F0C0833009F458C081301B
:10F9D00009F00AC23EC0813109F462C0823108F0E8
:10F9E000A6C0803109F000C2DFC0883109F472C0BE
:10F9F000893150F4853109F4D9C0853108F477C1D3
:10FA0000863109F0F1C173C18A3109F457C08A31D6
:10FA100008F47CC08B3109F446C08D3109F0E4C193
:10FA20008D81803311F090E00AC08F81882311F41A
:10FA30009EE105C0813011F091E001C098E91A8281
:10FA40001B828D818C831D829E831F8227E030E084
:10FA5000CFC11A8288E08B8381E48C8386E58D8315
:10FA600082E58E8389E48F8383E5888780E58987B3
:10FA70008FE58A8782E38B872BE030E0B9C18A81EA
:10FA8000813941F0823941F0803911F48FE005C0AD
:10FA900080E003C082E001C08AE01A828B8344C008
:10FAA0009924939481C08D81882311F48EE12CC018
:10FAB000813011F081E028C088E926C01A82E1E097
:10FAC000F0E089E08093570084918B831C8224E0CE
:10FAD00030E08EC18B81803589F48C81883039F497
:10FAE000E2E0F0E089E08093570084910DC0E0E00F
:10FAF000F0E089E080935700849106C0E3E0F0E0F5
:10FB000089E08093570084911A82DFCF8D81836CC6
:10FB100099E0E1E0F0E0082E90935700E89507B6F1
:10FB200000FCFDCF1A821B8223E030E061C11A8203
:10FB3000CC5CDE4F188219821A821B82C453D140DA
:10FB400055C18A8190E0A0E0B0E0582F44273327C8
:10FB500022278B8190E0A0E0B0E0DC019927882784
:10FB6000282B392B4A2B5B2B8D8190E0A0E0B0E055
:10FB7000282B392B4A2B5B2B8C8190E0A0E0B0E046
:10FB8000BA2FA92F982F8827282B392B4A2B5B2B8C
:10FB9000220F331F441F551FC05EDE4F2883398359
:10FBA0004A835B83C052D1401A8220C19A812B8143
:10FBB000833149F0C05EDE4F488159816A817B8183
:10FBC000C052D1408AC0CC5CDE4F488159816A81E5
:10FBD0007B81C453D140403080EC580783E06807F4
:10FBE00080E07807F0F483E0FA0160935B00809393
:10FBF0005700E89507B600FCFDCFCC5CDE4F48818E
:10FC000059816A817B81C453D14040505F4F6F4F0F
:10FC10007F4FCC5CDE4F488359836A837B83C45318
:10FC2000D140C75CDE4F9883C953D140C85CDE4FDA
:10FC30001882C853D140022F10E0C85CDE4F6881A3
:10FC40007981C853D140062B172BC05EDE4F488107
:10FC500059816A817B81C052D140DE011B9631E01F
:10FC60008C9111962C9111971296C55CDE4F2883CA
:10FC7000CB53D140C65CDE4F1882CA53D14090E0CE
:10FC8000C65CDE4FE881F981CA53D1408E2B9F2B91
:10FC90000C01FA0160935B0030935700E895112442
:10FCA0004E5F5F4F6F4F7F4F02501040C9F685E0A7
:10FCB000C05EDE4FE880F9800A811B81C052D140CE
:10FCC000F70100935B0080935700E89507B600FCAE
:10FCD000FDCF81E180935700E8951A82C05EDE4F28
:10FCE000488359836A837B83C052D1407FC0FA80A6
:10FCF000C35CDE4FF882CD53D140C45CDE4F188226
:10FD0000CC53D1408B81C82EDD24C45CDE4F0881EA
:10FD10001981CC53D140C02AD12A1A828981BE01CF
:10FD20006D5F7F4F843121F59601C05EDE4FE88024
:10FD3000F9800A811B81C052D1400BBFF701879126
:10FD40009691DB018C9311969C936E5F7F4FD80147
:10FD5000C7010296A11DB11DC05EDE4F8883998345
:10FD6000AA83BB83C052D14022503040F1F636C046
:10FD7000C05EDE4F288139814A815B81C052D1400B
:10FD80000894C108D108760100E010E00894C11C75
:10FD9000D11C0894E11CF11C011D111DE20EF31E83
:10FDA000041F151F21BDBB27A52F942F832F82BDB4
:10FDB0002F5F3F4F4F4F5F4FF89A80B5DB018D9318
:10FDC000BD012E153F054007510761F7C05EDE4FAC
:10FDD000288339834A835B83C052D14096012D5FCB
:10FDE0003F4FFB01108204C080EC8A8322E030E0A8
:10FDF0008BE18093C6008091C00086FFFCCF80918C
:10FE0000C00080648093C000CF5CDE4FF881C15396
:10FE1000D140F093C6008091C00086FFFCCF809156
:10FE2000C00080648093C000432F3093C60080914F
:10FE3000C00086FFFCCF8091C00080648093C0002A
:10FE4000922F2093C6008091C00086FFFCCF809146
:10FE5000C00080648093C0008EE08093C6008091D3
:10FE6000C00086FFFCCF8091C00080648093C000FA
:10FE700065E1CF5CDE4FE880C153D1406E25692734
:10FE80006427FE01319610C090819093C600809146
:10FE9000C00086FFFCCF31968091C00080648093C3
:10FEA000C0006927215030402115310569F7609362
:10FEB000C6008091C00086FFFCCF8091C0008064A6
:10FEC0008093C00085B1805885B9992081F4CF5CBA
:10FED000DE4F0881C153D1400F5FCF5CDE4F0883F6
:10FEE000C153D14090E0A0E0B0E00D948DF527988B
:10FEF0002F9880E090E020ED37E0F9013197F1F79D
:10FF0000019684369105C9F700008091C0008D7F6D
:10FF10008093C00081E180935700E895EE27FF278A
:10FF20000994FFCF90E00D948DF597FB092E0726DD
:10FF30000AD077FD04D02ED006D000201AF4709598
:10FF400061957F4F0895F6F7909581959F4F08959D
:10FF5000A1E21A2EAA1BBB1BFD010DC0AA1FBB1FCD
:10FF6000EE1FFF1FA217B307E407F50720F0A21B3F
:10FF7000B30BE40BF50B661F771F881F991F1A94AC
:10FF800069F760957095809590959B01AC01BD01D6
:10FF9000CF010895AA1BBB1B51E107C0AA1FBB1FBD
:10FFA000A617B70710F0A61BB70B881F991F5A9505
:10FFB000A9F780959095BC01CD010895F999FECFE0
:10FFC00092BD81BDF89A992780B50895262FF99999
:10FFD000FECF1FBA92BD81BD20BD0FB6F894FA9A2C
:0CFFE000F99A0FBE01960895F894FFCF27
:040000033000E000E9
:00000001FF
