:1000000097C00000BBC00000B9C00000B7C000002E
:10001000B5C00000B3C00000B1C00000AFC0000018
:10002000ADC00000ABC00000A9C00000A7C0000028
:10003000A5C00000A3C00000A1C000009FC0000038
:10004000C6C200009BC000009AC3000097C0000019
:1000500095C0000093C0000091C000008FC0000058
:100060008DC000008BC000000E02110214021702A6
:100070001A021D02200224024D414E5546414354AE
:1000800055524552004350552D4E414D4500474372
:10009000432D56657273696F6E004156522D4C693F
:1000A00062432D56657200436F6D70696C65642DF7
:1000B0006461746500546573742D53756974652D9E
:1000C0004E616D6500467265652D6D656D6F727967
:1000D000002E2E2E20006F6B004641494C00203D23
:1000E0002000696E666F2E002D2D2D2D2D2D2D2DAE
:1000F0002D2D2D2D2D2D2D2D2D2D2D2D2D2D2D2D30
:100100002D2D004469676974616C52656164577292
:100110006974655F0050574D6F75747075745F003A
:10012000416E616C6F67496E7075745F0000760593
:1001300011241FBECFEFD8E0DEBFCDBF12E0A0E09C
:10014000B1E0E2E2F5E102C005900D92A83BB107F3
:10015000D9F713E0A8EBB2E001C01D92A436B107B5
:10016000E1F711E0C0E3D1E003C02297FE01ACD675
:10017000CE32D107D1F748D00C948F0A41CFA0E3FB
:10018000B0E0E4ECF0E075C642D08C0180E091E094
:1001900068E071E07CD186E191E061E063D082E3C8
:1001A00091E060E05FD033D09801281B390BCE017D
:1001B00001962115310529F460E671E011D761E05F
:1001C0001CC000D000D000D0EDB7FEB73196ADB75F
:1001D000BEB712969C938E9311978DE691E0938310
:1001E0008283358324830CD760E08DB79EB7069653
:1001F0000FB6F8949EBF0FBE8DBFCE01019632D0D0
:1002000073D0E096E4E051C67FD2B9DFFFCFA2E021
:10021000B0E0ECE0F1E02FC6209160033091610383
:10022000CE0101962115310519F48456934002C080
:10023000821B930B9A83898389819A812296E2E0BB
:1002400036C6CF93DF93EC0105C08DE493E040E028
:1002500050E062D5FE01649121966623B1F7DF91EB
:10026000CF910895FF920F931F93CF93DF938C014B
:10027000F62E8DE493E0B801A4D4C801B8D6EC0101
:1002800007C08DE493E060E240E050E045D5219660
:10029000CC33D105B4F381ED90E0D3DFFF2021F022
:1002A00086ED90E0CEDF0CC089ED90E0CADF809152
:1002B000BC029091BD0201969093BD028093BC0256
:1002C0008DE493E03AD58091BE029091BF020196F1
:1002D0009093BF028093BE02CDB7DEB7E5E0E4C5E0
:1002E000B0DF8DE493E029C5AF92BF92CF92DF9249
:1002F000EF92FF920F931F9388EE90E0F1DF8DE471
:1003000093E06CE472E05DD46091BE027091BF0234
:100310008DE493E04AE050E0EDD48DE493E061E5B4
:1003200072E04FD49CD17B018C0199D15B016C01AF
:10033000C801B70128EE33E040E050E04FD58DE42E
:1003400093E0BA01A9012AE030E0A6D48DE493E05D
:100350006EE240E050E0E0D4C601B50128EE33E0A3
:1003600040E050E03BD5AB01BC018DE493E02AE0D6
:1003700030E092D48DE493E063E740E050E0CCD4E9
:100380008DE493E0DAD48DE493E0D7D48091BC027D
:100390009091BD02892B29F48DE493E06CE572E025
:1003A00012C08DE493E06FE572E00BD46091BC0263
:1003B0007091BD028DE493E04AE050E09BD48DE45F
:1003C00093E061E772E0FDD38DE493E0B6D48DE471
:1003D00093E064E078D31F910F91FF90EF90DF904E
:1003E000CF90BF90AF900895A0E4B0E0E9EFF1E0C6
:1003F0003AC5182F092F6B015A017E010894E11CA0
:10040000F11CC70162EE70E0D9D5E12FF02FE83082
:10041000F10510F5EC5CFF4FC70154C5B601D5D509
:100420001BC068E770E00EC065E870E00BC06EE8C6
:1004300070E008C06AE970E005C067EA70E002C0D9
:1004400065EB70E0B0D508C065EC70E0FBCFC8018B
:1004500063E772E0BAD503C08E010F5F1F4FC8017A
:10046000C6D54497A0F3C8016EED70E09CD5A114E9
:10047000B10419F0C801B501A8D58DE493E0BE011F
:100480006F5F7F4F69D4C05CDF4FEAE008C5A0E32F
:10049000B0E0ECE4F2E0E9C47C016B011092BD0233
:1004A0001092BC021092BF021092BE020DE413E043
:1004B000C80140E855E260E070E0CDD168EE73E03D
:1004C00080E090E000D1CBD06093B8027093B90285
:1004D0008093BA029093BB02C8012FD4C8012DD4D7
:1004E000C8012BD481E090E060E070E0A7017CDFE0
:1004F00082E090E060E070E045E752E075DF83E085
:1005000090E060E070E040E852E06EDF84E090E070
:1005100060E070E046E852E067DF85E090E060E090
:1005200070E04CE852E060DF86E090E060E070E070
:10053000A6015ADF6CDE00D000D000D0EDB7FEB7C8
:1005400031968E010F5F1F4FADB7BEB712961C9349
:100550000E93119728E932E03383228395838483B5
:100560004FD58DB79EB706960FB6F8949EBF0FBEB7
:100570008DBF87E090E060E070E0A80135DF80E0AB
:1005800004D0F3D3E096E8E08CC4982F8E3008F0C6
:100590009E5097708091A5028295880F880F807C6D
:1005A000892B80937C0080917A00806480937A000C
:1005B00080917A0086FDFCCF2091780040917900EF
:1005C000942F80E030E0282B392BC90108951F9229
:1005D0000F920FB60F9211242F933F938F939F93F7
:1005E000AF93BF938091C4029091C502A091C602BF
:1005F000B091C7023091C8020196A11DB11D232FF1
:100600002D5F2D3720F02D570196A11DB11D209390
:10061000C8028093C4029093C502A093C602B0930F
:10062000C7028091C0029091C102A091C202B09114
:10063000C3020196A11DB11D8093C0029093C10217
:10064000A093C202B093C302BF91AF919F918F91CB
:100650003F912F910F900FBE0F901F9018958FB75D
:10066000F8942091C4023091C5024091C602509185
:10067000C7028FBFB901CA0108959FB7F8942091AE
:10068000C0023091C1024091C2025091C30286B5AE
:10069000A89B06C08F3F21F02F5F3F4F4F4F5F4F0A
:1006A0009FBF542F432F322F2227280F311D411D6A
:1006B000511D82E0220F331F441F551F8A95D1F729
:1006C000B901CA010895EF92FF920F931F93CF9340
:1006D000DF937B018C01D1DFEB010DC0CEDF6C1B02
:1006E0007D0B685E7340D0F30894E108F1080109BE
:1006F0001109C851DC4FE114F1040105110571F72E
:10070000CDB7DEB7E6E0CFC3789484B5826084BD10
:1007100084B5816084BD85B5826085BD85B5816005
:1007200085BDEEE6F0E0808181608083E1E8F0E065
:100730001082808182608083808181608083E0E894
:10074000F0E0808181608083E1EBF0E08081846073
:100750008083E0EBF0E0808181608083EAE7F0E075
:1007600080818460808380818260808380818160D9
:1007700080838081806880831092C10008951F92D9
:100780000F920FB60F9211242F933F934F935F93C5
:100790006F937F938F939F93AF93BF93EF93FF9349
:1007A0004091C600E0914903F0914A03CF010196C0
:1007B00060E870E000D39C0180914B0390914C0362
:1007C0002817390739F0E753FD4F408330934A0328
:1007D00020934903FF91EF91BF91AF919F918F912A
:1007E0007F916F915F914F913F912F910F900FBE2D
:1007F0000F901F9018958F92AF92CF92DF92EF9249
:10080000FF920F931F93DF93CF93CDB7DEB7FC0119
:100810008AEA92E091838083738362835583448361
:100820003783268311870087F386E286D586C486C0
:10083000A68687868D85808B8E85818B8F85828B22
:10084000CF91DF911F910F91FF90EF90DF90CF90AC
:10085000AF908F900895A0E0B0E0E0E3F4E0FEC236
:10086000EC013A014B01413482E458078FE06807FC
:1008700080E078070CF077C060E874E88EE190E0E3
:10088000A4019301CDD22150304040405040CA01D4
:10089000B90122E030E040E050E0C2D259016A01E3
:1008A000A6019501209530954095509594E0220F32
:1008B000331F441F551F9A95D1F760E074E284EF0F
:1008C00090E0AED2CA01B9012FEF30E040E050E035
:1008D00053D2A4019301A4D2C90181509F4F18168D
:1008E00019061CF4522E5A9403C055245394521ADC
:1008F00060E079E08DE390E0A401930191D2215072
:10090000304040405040CA01B90122E030E040E0B0
:1009100050E086D2209530954095509583E0220F87
:10092000331F441F551F8A95D1F760E074E284EFAE
:1009300090E076D2CA01B9012FEF30E040E050E0FC
:100940001BD2A40193016CD279018A01C9018150A3
:100950009F4F181619061CF4822F815002C081E0A7
:10096000821B8515F0F4E885F98581E090E00A881E
:1009700002C0880F991F0A94E2F7808360E079E053
:100980008DE390E0A40193014BD2215030404040D0
:100990005040CA01B90122E030E040E050E040D2CE
:1009A00004C0E885F98510829501EC81FD813083D2
:1009B000EE81FF812083EA85FB85208141E050E0C4
:1009C000CA010E8402C0880F991F0A94E2F7282BEF
:1009D0002083EA85FB852081CA010F8402C0880F2D
:1009E000991F0A94E2F7282B2083EA85FB858081F2
:1009F000088802C0440F551F0A94E2F7842B8083B5
:100A0000CDB7DEB7EFE046C2DC011296ED91FC9166
:100A10001397E058FF4F8191919180589F4F20810B
:100A20003181821B930B60E870E0C5C1DC01129636
:100A3000ED91FC911397EE57FF4F208131819291F8
:100A40008291E058F0408217930719F42FEF3FEF9F
:100A500005C0E20FF31F8081282F30E0C9010895FF
:100A6000CF93DF93DC011296ED91FC911397EF0188
:100A7000CE57DF4F48815981E058FF4F80819181E7
:100A8000E058F0408417950719F42FEF3FEF0BC0A3
:100A9000E40FF51F2081CA01019660E870E08BD158
:100AA0009983888330E0C901DF91CF910895DC01FB
:100AB0001296ED91FC911397EE57FF4F8081918133
:100AC000929382930895FC01A085B18521898C9130
:100AD00090E0022E02C0959587950A94E2F780FF78
:100AE000F6CF0484F585E02D608308958F92AF9250
:100AF000CF92DF92EF92FF920F931F9300D00F924D
:100B0000EDB7FEB7319687E0ADB7BEB711968C93BF
:100B100085E0818381E082838DE493E069EC72E07B
:100B200045EC50E024EC30E000EC10E0B1ECEB2EB2
:100B3000F12CA6ECCA2ED12CF4E0AF2EE3E08E2EE1
:100B40005ADE0F900F900F901F910F91FF90EF9032
:100B5000DF90CF90AF908F9008950F931F93CF9316
:100B6000DF938C01EB0109C02196D801ED91FC9136
:100B70000190F081E02DC801099568816623A1F7F5
:100B8000DF91CF911F910F910895EF92FF920F93F4
:100B90001F93CF93DF938C017B01EA010CC0D70137
:100BA0006D917D01D801ED91FC910190F081E02DD6
:100BB000C80109952197209791F7CDB7DEB7E6E0F8
:100BC00072C1DC01ED91FC910280F381E02D099569
:100BD0000895A0E2B0E0EEEEF5E03DC11C016A012F
:100BE0007B01411551056105710529F460E340E081
:100BF00050E092D04EC0882499245401422E5524AE
:100C00006624772401E010E00C0F1D1F080D191D4C
:100C1000C701B601A3019201E1D0F80160830894F5
:100C2000811C911CA11CB11CC701B601A30192013A
:100C3000D5D0C901DA016C017D01C114D104E104F0
:100C4000F10401F781E0E82EF12CEC0EFD1EE80C1A
:100C5000F91C3E010894611C711CD501C401019767
:100C6000A109B1096C01C818D90810C0F601EE0D30
:100C7000FF1D60816A3010F4605D01C0695CC101D4
:100C800040E050E049D00894E108F1086E147F0478
:100C900069F7A096E2E1FBC0EF92FF920F931F93DA
:100CA000CF93DF93EC017A018B012115310541F4DB
:100CB000E881F9810190F081E02D642F099516C03B
:100CC0002A30310591F477FF0CC06DE240E050E02E
:100CD00023D010950095F094E094E11CF11C011DC7
:100CE000111DCE01B801A7012AE073DFCDB7DEB731
:100CF000E6E0D9C0EF92FF920F931F937B019A0118
:100D00000027F7FC0095102FB801A701C5DF1F9140
:100D10000F91FF90EF900895EF92FF920F931F9322
:100D20009A01E62EFF2400E010E0B801A701B4DF2D
:100D30001F910F91FF90EF9008950F931F938C01D7
:100D40006DE040E050E0E8DFC8016AE040E050E0DC
:100D5000E3DF1F910F9108950F931F938C0131DFF3
:100D6000C801EBDF1F910F910895009721F0BC019E
:100D700080E090E00FC10895629FD001739FF00161
:100D8000829FE00DF11D649FE00DF11D929FF00D1B
:100D9000839FF00D749FF00D659FF00D9927729F52
:100DA000B00DE11DF91F639FB00DE11DF91FBD01DD
:100DB000CF011124089597FB092E07260AD077FD4D
:100DC00004D086D006D000201AF4709561957F4F2C
:100DD0000895F6F7909581959F4F0895A1E21A2EF8
:100DE000AA1BBB1BFD010DC0AA1FBB1FEE1FFF1FCF
:100DF000A217B307E407F50720F0A21BB30BE40B1F
:100E0000F50B661F771F881F991F1A9469F7609565
:100E10007095809590959B01AC01BD01CF0108951F
:100E200097FB092E05260ED057FD04D0D7DF0AD038
:100E3000001C38F450954095309521953F4F4F4F09
:100E40005F4F0895F6F790958095709561957F4F67
:100E50008F4F9F4F08952F923F924F925F926F92C4
:100E60007F928F929F92AF92BF92CF92DF92EF923A
:100E7000FF920F931F93CF93DF93CDB7DEB7CA1BBB
:100E8000DB0B0FB6F894DEBF0FBECDBF09942A88E6
:100E9000398848885F846E847D848C849B84AA848E
:100EA000B984C884DF80EE80FD800C811B81AA811B
:100EB000B981CE0FD11D0FB6F894DEBF0FBECDBFE6
:100EC000ED010895EE0FFF1F0590F491E02D0994B8
:100ED000AA1BBB1B51E107C0AA1FBB1FA617B70760
:100EE00010F0A61BB70B881F991F5A95A9F780957C
:100EF0009095BC01CD010895A0E0B0E0E1E8F7E0F5
:100F0000B2CFEC01A880B980CA80DB80A114B10403
:100F1000C104D10441F484E2A82E89EDB82E8BE5FA
:100F2000C82E87E0D82EC601B5012DE133EF41E090
:100F300050E076DF27EA31E440E050E01DDF7B013E
:100F40008C01C601B5012DE133EF41E050E068DFCF
:100F5000CA01B9012CEE34EF4FEF5FEF0DDF6E0DDC
:100F60007F1D801F911F97FF04C06150704080401B
:100F70009048688379838A839B839B01AC015F7768
:100F8000B901CA01CDB7DEB7EAE089CFB5CF81EAB2
:100F900092E0B2CF6093A1027093A2028093A30269
:100FA0009093A4020895FB01DC010D900020E9F765
:100FB000119705900D920020E1F70895FB01DC01E7
:100FC00005900D920020E1F70895FB01DC010D90E2
:100FD0000020E9F7119701900D920020E1F70895A4
:100FE000FB01DC0101900D920020E1F70895FC0166
:100FF00001900020E9F7809590958E0F9F1F08952E
:10100000AEE0B0E0E5E0F8E034CF0D891E8986E07F
:101010008C831A8309838FEF9FE79E838D839E01C4
:10102000275E3F4FCE0101966F89788DA90109D0C7
:101030002F813885020F131FF80110822E96E4E0ED
:1010400034CFABE0B0E0E6E2F8E005CF3C012B01A5
:101050005A01FC0117821682838181FD03C06FEF64
:101060007FEFB9C19AE0892E1E010894211C311C22
:10107000F3012381F20123FD859123FF81912F014B
:10108000882309F4A5C1853239F423FD859123FF16
:1010900081912F01853221F490E0B301B6D1E8CFE0
:1010A000982FFF24EE249924FFE1FF15D0F09B3206
:1010B00069F09C3228F4903259F0933291F40EC0CA
:1010C0009D3249F0903369F441E024C052E0F52AA2
:1010D00084E0F82A28C098E0F92A25C0E0E1FE2A39
:1010E00022C0F7FC29C0892F80538A3070F4F6FEA5
:1010F00005C0989C902C1124980E15C0E89CE02CFB
:101100001124E80EF0E2FF2A0EC09E3229F4F6FC0C
:101110005FC140E4F42A07C09C3619F450E8F52A70
:1011200002C0983649F4F20123FD959123FF919175
:101130002F01992309F0B8CF892F8554833018F0F7
:101140008052833038F444E050E0A40EB51E5FE3D3
:1011500059830FC0933631F0933779F0933509F006
:1011600052C01FC0F5018081898342E050E0A40E87
:10117000B51E610101E010E011C0F501C080D18011
:10118000F6FC03C06FEF7FEF02C0692D70E042E014
:1011900050E0A40EB51EC6012DD18C015FE7F522EB
:1011A00013C0F501C080D180F6FC03C06FEF7FEF64
:1011B00002C0692D70E042E050E0A40EB51EC601E9
:1011C0000ED18C0150E8F52AF3FE06C018C080E26B
:1011D00090E0B3011AD1EA948E2D90E00817190718
:1011E000B0F30DC0F601F7FC8591F7FE81916F0118
:1011F00090E0B3010AD1E110EA94015010400115CA
:10120000110581F7E2C0943611F0993661F5F7FEC9
:1012100008C0F501208131814281538184E090E052
:101220000AC0F501808191819C01442737FD4095DA
:10123000542F82E090E0A80EB91E9FE6F92257FFD6
:1012400009C050954095309521953F4F4F4F5F4FC6
:10125000E0E8FE2ACA01B901A1012AE030E001D18B
:10126000D82ED2183FC0953729F41F2D1F7E2AE0B3
:1012700030E01DC01F2D197F9F3661F0903720F49C
:10128000983509F0A5C00FC0903739F0983709F0AC
:101290009FC004C028E030E00AC0106114FD146053
:1012A00020E130E004C014FD166020E132E017FFB9
:1012B00008C0F501608171818281938144E050E032
:1012C00008C0F50180819181BC0180E090E042E09E
:1012D00050E0A40EB51EA101C4D0D82ED2188FE7BD
:1012E000F82EF122F6FE0BC05EEFF522D91438F489
:1012F000F4FE07C0F2FC05C08FEEF82202C01D2DDF
:1013000001C0192DF4FE0DC0FE01ED0DF11D80810F
:10131000803319F499EEF92208C01F5FF2FE05C070
:1013200003C08F2D867809F01F5F0F2DF3FC13C0CB
:10133000F0FE0EC01E1510F09D2C0AC09D2C9E0CB8
:10134000911A1E2D05C080E290E0B3015ED01F5FB0
:101350001E15C8F304C01E1510F4E11A01C0EE24D6
:1013600004FF0EC080E390E0B3014FD002FF1BC02A
:1013700001FD03C088E790E00EC088E590E00BC057
:10138000802F867881F001FF02C08BE201C080E2ED
:10139000F7FC8DE290E0B30138D005C080E390E027
:1013A000B30133D09A94D914C8F3DA94F101ED0D56
:1013B000F11D808190E0B30128D0DD20B1F705C098
:1013C00080E290E0B30121D0EA94EE20C9F750CE3C
:1013D000F30166817781CB012B96E2E158CDFC01C8
:1013E0000590615070400110D8F7809590958E0F50
:1013F0009F1F0895FC016150704001900110D8F7C3
:10140000809590958E0F9F1F08950F931F93CF93F4
:10141000DF938C01EB018B8181FF1BC082FF0DC02C
:101420002E813F818C819D812817390764F4E881E2
:10143000F9810193F983E88306C0E885F985802F57
:101440000995892B31F48E819F8101969F838E832C
:1014500002C00FEF1FEFC801DF91CF911F910F91D5
:101460000895FA01AA27283051F1203181F1E8943A
:101470006F936E7F6E5F7F4F8F4F9F4FAF4FB1E087
:101480003ED0B4E03CD0670F781F891F9A1FA11D82
:10149000680F791F8A1F911DA11D6A0F711D811D83
:1014A000911DA11D20D009F468943F912AE0269F48
:1014B00011243019305D3193DEF6CF010895462FA7
:1014C0004770405D4193B3E00FD0C9F7F6CF462F88
:1014D0004F70405D4A3318F0495D31FD40524193F1
:1014E00002D0A9F7EACFB4E0A695979587957795AE
:1014F0006795BA95C9F700976105710508959B0135
:10150000AC010A2E06945795479537952795BA95BD
:10151000C9F7620F731F841F951FA01D0895F894CB
:02152000FFCFFB
:1015220041726475696E6F00536B656C65746F6EA2
:10153200205465737400312E2054657374206F66D5
:101542002074727565207465737420737461747588
:101552007300322E2054657374206F662066616CAE
:1015620073652074657374207374617475732C20B1
:10157200746869732077696C6C206661696C2E00EF
:101582004D656D6F7279205573616765004D656DAC
:101592006F727920557361676520286C6F737420B0
:1015A200256420627974657329002050574D2045C7
:1015B20052524F520020202850574D3D2530326460
:1015C2002025642525204C4F5720256425252048B9
:1015D2004947482900454550524F4D5F627974652D
:1015E2005F7277202028616464723D203078253054
:1015F20034582900454550524F4D5F776F72645FF2
:101602007277202028616464723D2030782530345E
:10161200582900454550524F4D5F64776F72645FA1
:1016220072772028616464723D2030782530345806
:101632002900253032640020284C6F773D25346420
:1016420020486967683D2534642068656C7065725E
:101652002070696E3D25642900202868656C7065DC
:10166200722070696E3D25303264290052616E200D
:101672000020746573747320696E20004F4B00461E
:1016820041494C454420286661696C757265733D19
:10169200002900200041546D6567613332385000E3
:1016A200342E332E3400312E362E37004F63742001
:1016B200323620323031300025642062797465730D
:1016C200000100000001000000006305AD05C50532
:0816D20004053005570516055B
:00000001FF
