:100000000C94BC400C94D2400C94D2400C94D2403E
:100010000C94D2400C94D2400C94D2400C94D24018
:100020000C94D2400C94D2400C94D2400C94D24008
:100030000C94D2400C94D2400C94D2400C94D240F8
:100040000C94D2400C94D2400C94D2400C94D240E8
:100050000C94D2400C94D2400C94D2400C94D240D8
:100060000C94D2400C94D2400C94D2400C94D240C8
:100070000C94D2400C94D2400C94D2400C94D240B8
:100080000C94D2400C94D2400C94D2400C94D240A8
:100090000C94D2400C94D2400C94D2400C94D24098
:1000A0000C94D2400C94D2400C94D2400C94D24088
:1000B0000C94D2400C94D2400C94D2400C94D24078
:1000C0000C94D2400C94D2400C94D2400C94D24068
:1000D0000C94D2400C94D2400C94D2400C94D24058
:1000E0000C94D2400C94D2400C94D2400C94D24048
:1000F0000C94D2400C94D2400C94D2400C94D24038
:100100000C94D2400C94D2400C94D2400C94D24027
:100110000C94D2400C94D2400C94D2400C94D24017
:100120000C94D2400C94D2400C94D2400C94D24007
:100130000C94D2400C94D2400C94D2400C94D240F7
:100140000C94D2400C94D2400C94D2400C94D240E7
:100150000C94D2400C94D2400C94D2400C94D240D7
:100160000C94D2400C94D2400C94D2400C94D240C7
:100170000C94D2400C94D24011241FBECFEFDFE28A
:10018000DEBFCDBF18BE19BE1ABE1BBE10E2A0E076
:10019000B0E201C01D92A130B107E1F70E945D42BB
:1001A0000C946A460C94004090910020923050F4D8
:1001B0008091A10887FFFACF81E080930020809191
:1001C000A0080895FFCF982F80910020823060F41E
:1001D0009093A0088091A10886FFFCCF8091A10890
:1001E0008064E0EAF8E0818308950E94D440382FCB
:1001F0000E94D440282FC9010895EF92FF921F93C7
:10020000CF93DF937C01162FEA01653459F5809175
:10021000CC01877FE0ECF1E084870E944D44888127
:100220009981AA81BB81682F6F7145E0B695A7952A
:10023000979587954A95D1F70E9421440E94E34003
:1002400088819981AA81BB810196A11DB11D8883F6
:100250009983AA83BB830894E108F108E114F104AF
:10026000F1F660C0663429F0653519F0603509F0A3
:1002700059C088819981AA81BB81880F991FAA1FC3
:10028000BB1F88839983AA83BB83163499F4688142
:1002900079818A819B810E94D2450E94E3406881D6
:1002A00079818A819B816F5F7F4F8F4F9F4F0E9423
:1002B000D24519C0153561F4888199810E94E145C4
:1002C0000E94E3408881998101960E94E1450BC01C
:1002D000103559F488810E94DF450E94E3408881EF
:1002E0008F5F0E94DF450E94E3400E944D46888157
:1002F0009981AA81BB810296A11DB11D8883998332
:10030000AA83BB832EEF3FEFE20EF31EE114F1044C
:1003100009F0BBCFB695A795979587958883998364
:10032000AA83BB83DF91CF911F91FF90EF90089537
:100330005F926F927F928F929F92AF92BF92CF9275
:10034000DF92EF92FF920F931F93DF93CF93CDB77E
:10035000DEB7C050D140CDBFDEBF3C01562E4A01B2
:1003600085E46817E9F50E944D448091CC01877FB0
:10037000E0ECF1E084877E010894E11CF11C670148
:100380005701A60CB71C05C00E94D440F60181930A
:100390006F01CA14DB04C1F71FC0F4018081918191
:1003A000A281B381682F6F7175E0B695A795979577
:1003B00087957A95D1F7F70141917F010E946244B8
:1003C000F40180819181A281B3810196A11DB11DAB
:1003D00080839183A283B383EC14FD04F1F658C0AB
:1003E000F6E46F1729F085E5681711F08FE351C027
:1003F000F401C080D180E280F380CC0CDD1CEE1CC7
:10040000FF1CC082D182E282F3820E94D440082F76
:1004100010E00E94D440B82EAA240A291B29F40116
:1004200080819181B8010E940A46F4018081918106
:10043000A281B3810296A11DB11D80839183A28305
:10044000B3838EEF9FEF680E791E61147104E9F695
:1004500096E4591629F4C701B6010E94264609C040
:10046000E5E55E1631F40E94F5450E944D460E9476
:10047000F9450E944D46F40180819181A281B381AA
:10048000B695A7959795879580839183A283B3832B
:100490008DE0C050DF4FCDBFDEBFCF91DF911F9108
:1004A0000F91FF90EF90DF90CF90BF90AF909F9013
:1004B0008F907F906F905F9008953F924F925F92E0
:1004C0006F927F928F929F92AF92BF92CF92DF9264
:1004D000EF92FF920F931F93DF93CF93CDB7DEB7C9
:1004E0002597CDBFDEBF1A821B821C821D82198216
:1004F0001092002081E080936800E0E6F6E080E85A
:10050000818385830E94224520E335E744E050E063
:10051000E0E6F6E090E8121613061CF42150304095
:1005200005C097834150504020E335E78091A108F2
:1005300087FF05C081E08093002011E04FC11416B1
:1005400015064CF310E04AC1F20137820E94D440F4
:10055000982F8983813611F489E53AC1813429F4D1
:100560000E94F540A0E0B0E008C0883459F40E9431
:10057000D440A82F0E94F540BB278A839B83AC837D
:10058000BD830BC0853659F40E94FD450E944D463F
:10059000C3010E94A0440E9411458DE019C182361A
:1005A00029F489E50E94E34081E0DCC0823491F4C3
:1005B0000E94F540182F092F282F392FC9016C01EF
:1005C0000E94D440682F8983812F902FA4010E941C
:1005D0009841FEC0873691F40E94F540182F092FEC
:1005E000282F392FC9016C010E94D440682F8983BC
:1005F000812F902FA4010E94FD40ECC08235D9F4D8
:100600006A817B818C819D81660F771F881F991F6E
:100610006F5F7F4F8F4F9F4F0E94D2450E94E340F4
:100620006A817B818C819D81660F771F881F991F4E
:100630000E94D2455BC0833629F40E94D440C82E64
:10064000DD24ABCF8334A9F40E94D440B82EAA2471
:10065000CA28DB288A819B81880F991FB6010E94D6
:100660000A468A819B81AC81BD810196A11DB11D85
:1006700084CF8D36A1F46A817B818C819D8160302D
:10068000F0E47F07F0E08F07F0E09F0708F09FC0DD
:10069000660F771F881F991F0E9420467ECF8434E3
:1006A000A1F4EA80FB800C811D810E94D440482F78
:1006B0006E2D6F7185E016950795F794E7948A95EE
:1006C000D1F78E2D0E94624413C08436E9F48A81EA
:1006D0009B81AC81BD81682F6F7115E0B695A795A0
:1006E000979587951A95D1F70E9421440E94E3407F
:1006F0008A819B81AC81BD810196A11DB11D8A8338
:100700009B83AC83BD8366C08C3629F40E94D440A1
:100710000E94EE4542CF823719F40E94F24558C03C
:10072000863411F480E007C08E3411F481E003C0F8
:10073000813521F482E00E94E3454AC0803509F406
:100740002CCF8C3409F429CF853429F48DE00E9414
:10075000E34010E040C0803711F483E539C08437AE
:1007600029F48BE70E94E34080E032C08857823052
:1007700010F0943519F40E94D4400FCF9335A1F4B2
:1007800088E50E94E34082E40E94E3408FE60E94F5
:10079000E3408FE60E94E34084E70E94E3408BE25F
:1007A0000E94E3408BE214C0963529F481E30E9455
:1007B000E34086E30DC0933741F481E40E94E340B7
:1007C00085E90E94E3408EE103C09B3119F08FE37D
:1007D0000E94E34011E00E944D460FC0A0E64A2E61
:1007E000A6E05A2EF0E83F2EE2E08E2E912C8C0EE1
:1007F0009D1E3E010894611C711C112309F0A4CEBA
:100800000E94304580E8E0E6F6E082831CBEE0E02E
:10081000F0E0099580E090E02596CDBFDEBFCF9156
:10082000DF911F910F91FF90EF90DF90CF90BF90DD
:10083000AF909F908F907F906F905F904F903F9080
:100840000895982FE0ECF1E08091CF0187FDFACF79
:10085000262F30E02F713070892F90E045E0880F0F
:10086000991F4A95E1F7282B392B2093C001832F3C
:100870008F718183128286E08287EBECF1E021E0C8
:1008800030E088ED90E084BF20838091C40108951A
:100890008091CF0187FDFCCF08958091CF0187FD26
:1008A000FCCF8091CF0181FF0CC086E3E0ECF1E04A
:1008B0008287EBECF1E021E030E088ED90E084BF4E
:1008C00020830895DF92EF92FF920F931F93E82EFB
:1008D000062FD42E0E944D44E0ECF1E083E38287A2
:1008E00010E00F711070FF2455E0EE0CFF1C5A95BC
:1008F000E1F70E291F290083812F8F7181831282D6
:10090000D48285E38287EBECF1E021E030E088EDF2
:1009100090E084BF20831F910F91FF90EF90DF90B4
:100920000895982FE0ECF1E08091CF0187FDFACF98
:1009300083E382879093C0011182128264830895B9
:10094000DC01E0ECF1E08091CF0187FDFACF83E399
:1009500082871182128290E09093C0018D918483EE
:100960009F5F9032C9F70895982FE0ECF1E08091F5
:10097000CF0187FDFACF892F90E065E0880F991F9E
:100980006A95E1F78093C001892F8F71818312826C
:1009900085E38287EBECF1E021E030E088ED90E048
:1009A00084BF20830895982FE0ECF1E08091CF017F
:1009B00087FDFACF892F90E075E0880F991F7A950F
:1009C000E1F78093C001892F8F718183128282E3C6
:1009D0008287EBECF1E021E030E088ED90E084BF2D
:1009E00020830895982FE0ECF1E08091CF0187FDFE
:1009F000FACF892F90E0A5E0880F991FAA95E1F71B
:100A00008093C001892F8F718183128284E3828752
:100A1000EBECF1E021E030E088ED90E084BF208352
:100A200008958091CF0187FDFCCF80E3E0ECF1E0F9
:100A30008287EBECF1E021E030E088ED90E084BFCC
:100A400020830895E0E4F6E0818188608183E0EA14
:100A5000F8E083E1868380EC87838CE184830895CA
:100A6000E0EAF8E014820895E0EAF4E0108288E019
:100A7000808780E1838715860895E0EAF4E0108698
:100A8000089510924006E0E6F6E083E085838183D6
:100A900008958FEF80934006E0E6F6E083E08683DA
:100AA00082830895A0E6B6E022E016962C9316976E
:100AB000E0E4F6E08085982F990F9A7A86958575FF
:100AC000982B892F880F880F8C7C96959695937319
:100AD000892B829515962C930895982FA0E6B6E061
:100AE0008091680682FD1FC02FEF20934006892F5A
:100AF000880F8A7A96959575892B982F990F990F5B
:100B00009C7C869586958373982B9295E0E4F6E01D
:100B100094832093400681E016968C93169710924A
:100B2000400615968C930895982FA0E6B6E0809124
:100B3000680682FDFACF8091680682FD1FC02FEF04
:100B400020934006892F880F8A7A96959575892B70
:100B5000982F990F990F9C7C869586958373982B77
:100B60009295E0E4F6E094832093400681E01696A7
:100B70008C9316971092400615968C93089588EDE5
:100B800084BF8FE1809380008091820080FDFCCF44
:100B90000895E0E8F0E080818C7F816098ED94BF5B
:100BA000808308953BB78BBFFB0186913BBF0895BF
:100BB0003BB78BBFFB01879196913BBF089542E005
:100BC00084C041E082C08093C00188278093C10126
:100BD0008093C20147E069D0CB0108958093C4019E
:100BE00048E063C08091D00108953BB748E10C9480
:100BF0007F463BB74AE10C947F463BB7882799274D
:100C00008BBF40E20C947F463BB78BBFCB0142E2E7
:100C10000C947F463BB70B0143E20C947F463BB7F5
:100C20006BBFFA0119BEDC0140E04093CA0150E0FD
:100C3000879197918D939D935A95D1F73BBF0895D6
:100C40003BB78BBFCB0144E20C947F463BB78BBFD5
:100C5000CB0145E20C947F463BB746E20C947F46BD
:100C60003BB78BBFCB014AE20C947F463BB78BBFAF
:100C7000CB014CE20C947F463BB78BBFCB014DE2DE
:100C80000C947F4648E311C049E30FC028ED209340
:100C9000340021E02093CC0108952091CF0127FD5D
:100CA000FCCF22272093CA0108954093CA0128ED62
:100CB00031E0209334003093CB016091C4017091F6
:100CC000C5018091C60199270895FC014093CA018E
:100CD00084910895F894FFCFEE27FF2719BEDC0119
:100CE00043E24093CA0150E82DE90D901D902093F6
:100CF0003400E89532965A95C1F711240895FC0105
:100D00004093CA012DE920933400E89511243BBF9C
:020D1000089544
:00000001FF
