:100000000C94C5400C94DB400C94DB400C94DB401A
:100010000C94DB400C94DB400C94DB400C94DB40F4
:100020000C94DB400C94DB400C94DB400C94DB40E4
:100030000C94DB400C94DB400C94DB400C94DB40D4
:100040000C94DB400C94DB400C94DB400C94DB40C4
:100050000C94DB400C94DB400C94DB400C94DB40B4
:100060000C94DB400C94DB400C94DB400C94DB40A4
:100070000C94DB400C94DB400C94DB400C94DB4094
:100080000C94DB400C94DB400C94DB400C94DB4084
:100090000C94DB400C94DB400C94DB400C94DB4074
:1000A0000C94DB400C94DB400C94DB400C94DB4064
:1000B0000C94DB400C94DB400C94DB400C94DB4054
:1000C0000C94DB400C94DB400C94DB400C94DB4044
:1000D0000C94DB400C94DB400C94DB400C94DB4034
:1000E0000C94DB400C94DB400C94DB400C94DB4024
:1000F0000C94DB400C94DB400C94DB400C94DB4014
:100100000C94DB400C94DB400C94DB400C94DB4003
:100110000C94DB400C94DB400C94DB400C94DB40F3
:100120000C94DB400C94DB400C94DB400C94DB40E3
:100130000C94DB400C94DB400C94DB400C94DB40D3
:100140000C94DB400C94DB400C94DB400C94DB40C3
:100150000C94DB400C94DB400C94DB400C94DB40B3
:100160000C94DB400C94DB400C94DB400C94DB40A3
:100170000C94DB400C94DB4058426A01194720473D
:100180004F477947664722478E4711241FBECFEF5E
:10019000DFE2DEBFCDBF18BE19BE1ABE1BBE11E224
:1001A000A0E0B0E201C01D92A130B107E1F70E94CA
:1001B00030440C9495470C9400403BB78BBFFB0137
:1001C00086913BBF08953BB78BBFFB01879196910A
:1001D0003BBF089542E097C041E095C08093C001C5
:1001E00088278093C1018093C20147E07CD0CB0176
:1001F00008958093C40148E076C08091D0010895AD
:100200003BB748E10C9488413BB74AE10C948841E4
:100210003BB7882799278BBF40E20C9488413BB7B6
:100220008BBFCB0142E20C9488413BB70B0143E208
:100230000C948841EE27FF2719BEDC0143E240936E
:10024000CA0150E82DE90D901D9020933400E895E7
:1002500032965A95C1F7112408953BB76BBFFA0146
:1002600019BEDC0140E04093CA0150E087919791AC
:100270008D939D935A95D1F73BBF08953BB78BBFA4
:10028000CB0144E20C9488413BB78BBFCB0145E2E4
:100290000C9488413BB746E20C9488413BB78BBF36
:1002A000CB014AE20C9488413BB78BBFCB014CE2B7
:1002B0000C9488413BB78BBFCB014DE20C94884135
:1002C00048E311C049E30FC028ED2093340021E03A
:1002D0002093CC0108952091CF0127FDFCCF222748
:1002E0002093CA0108954093CA0128ED31E020937C
:1002F00034003093CB016091C4017091C5018091AD
:10030000C60199270895FC014093CA01849108957C
:10031000FC014093CA012DE920933400E895112493
:100320003BBF089590910020923050F48091A10835
:1003300087FFFACF81E0809300208091A008089584
:10034000FFCF982F80910020823060F49093A00816
:100350008091A10886FFFCCF8091A1088064E0EA2B
:10036000F8E0818308950E949241382F0E949241C3
:10037000282FC9010895AF92BF92CF92DF92EF92DA
:10038000FF920F931F93CF93DF935B016C01790171
:100390008A01C0E0D0E020E031E036C081E02030CA
:1003A000380781F481E090E2B601A5010E942D4159
:1003B00080E091E0A0E0B0E0A80EB91ECA1EDB1EEE
:1003C00020E030E0F901EF5FFF4D8081C8278C2FDE
:1003D00082958C27082E869586958025082E8695F1
:1003E000802587700C2ECD2F869507948795D02D6C
:1003F000C82706948795D025C8272F5F3F4F0894BC
:10040000E108F10801091109E114F10401051105E0
:1004100009F0C4CFCE01DF91CF911F910F91FF90D2
:10042000EF90DF90CF90BF90AF900895CF92DF9282
:10043000EF92FF920F931F93CF93DF9381E090E2AF
:1004400040E05FE760E070E00E942D418091FB207A
:10045000883509F0F4C08091FC20823409F0EFC0A7
:100460008091FD20893409F0EAC08091FE20863415
:1004700009F0E5C0F090FF200091002160E070E4F9
:1004800080E090E02AEF3FE340E050E00E94BB4173
:100490002FEF8227382F32953827032E3695369541
:1004A0003025032E369530253770082E892F369546
:1004B00007943795902D83270694379590258327A9
:1004C0008227382F32953827032E369536953025DA
:1004D000032E369530253770082E892F36950794D0
:1004E0003795902D8327069437959025832782276B
:1004F000382F32953827032E369536953025032E22
:10050000369530253770082E892F36950794379504
:10051000902D832706943795902583278227382F9F
:1005200032953827032E369536953025032E36958D
:1005300030253770082E892F369507943795902DE2
:10054000832706943795902583278227382F329565
:100550003827032E369536953025032E36953025CF
:100560003770082E892F369507943795902D83275D
:1005700006943795902583278227282F22952827B0
:10058000022E269526952025022E269520252770B9
:10059000082E892F269507942795902D822706945B
:1005A0002795902582273F2D20E010E0202B312B2E
:1005B0002817390709F041C0EE24FF248701C0E65F
:1005C000D6E080E8C82EDD24DA94CF82B801A701F6
:1005D0004050504C6F4F7F4F81E090E20E942D4180
:1005E00080E0E8168FE3F80680E0080780E018074F
:1005F00060F0D092FB20D092FC20D092FD20D092CF
:10060000FE20D092FF20D0920021C801B70141E026
:1006100050E221E00E94D84580E091E0A0E0B0E007
:10062000E80EF91E0A1F1B1F90E0E91690E4F90678
:1006300090E0090790E0190741F60E942247DF91F8
:10064000CF911F910F91FF90EF90DF90CF90089581
:10065000AF92BF92CF92DF92FF920F931F93CF93EF
:10066000DF936C01F62E8A015C0185E46817A9F41A
:10067000FA018081918161E070E2A6010E94424608
:10068000960140E050E0F80180819181A281B38120
:10069000820F931FA41FB51F51C0F6E46F1739F0E6
:1006A00085E5681721F0E0E56E1709F058C0F801FC
:1006B00080819181A281B381880F991FAA1FBB1FDE
:1006C00080839183A283B383C0E0D0E0F6E4FF1679
:1006D00041F4F80160817181828193810E94DD4043
:1006E00010C0F5E5FF1631F4F801808191810E9478
:1006F000EC4007C0F0E5FF1649F4F80180810E9444
:10070000EA40FE01EF5FFF4D808321960E946B411E
:10071000F80180819181A281B3810196A11DB11D53
:1007200080839183A283B3830894C108D108C11444
:10073000D10461F6B695A7959795879580839183A7
:10074000A283B383C0E0D0E007C0FE01EF5FFF4D9E
:1007500080810E94A1412196CA15DB05B4F3DF9187
:10076000CF911F910F91FF90DF90CF90BF90AF90EE
:100770000895BF92CF92DF92EF92FF920F931F9353
:10078000CF93DF938C01B62E7A01C1E0D0E26E01E7
:10079000C80ED91E03C00E9492418993CC15DD0575
:1007A000D1F785E4B816C9F4F7018081918161E041
:1007B00070E2A8010E948246980140E050E0F701F3
:1007C00080819181A281B381820F931FA41FB51FE5
:1007D00080839183A283B38338C0F6E4BF1629F0E7
:1007E00085E5B81611F08FE331C0F7012081318122
:1007F0004281538116950795C801A0E0B0E0820FB1
:10080000931FA41FB51F80839183A283B383F6E453
:10081000BF1661F4220F331F441F551FCA01B901CF
:1008200041E050E221E00E94D8450FC085E5B816AE
:1008300061F481E090E20E941A410E9400410E940E
:100840006B410E9404410E946B418DE0DF91CF918A
:100850001F910F91FF90EF90DF90CF90BF90089580
:100860007F928F929F92AF92BF92CF92DF92EF9240
:10087000FF920F931F93DF93CF9300D000D0CDB79B
:10088000DEB719821A821B821C821092002081E03E
:1008900080936800E0E6F6E080E8818385830E942B
:1008A00007476091002020E335E740E050E096E004
:1008B000E0E6F6E070E8211531054105510529F023
:1008C000215030404040504006C07783915020E393
:1008D00035E740E050E08091A10887FD02C010E0BC
:1008E00002C011E061E0A895112381F0609300201F
:1008F00011E0EE24FF2480E6882E86E0982E00E8A2
:10090000702E5E010894A11CB11C32C1992399F686
:1009100060930020EECFF40177820E949241982FDD
:10092000813611F489E51FC1813429F40E94B34155
:10093000A0E0B0E008C0883459F40E949241A82F8A
:100940000E94B341BB2789839A83AB83BC8308C0D1
:10095000853641F40E9408410E946B410E94F64690
:100960008DE001C1823629F489E50E94A14181E030
:10097000C4C0823489F40E94B341182F092F282F54
:10098000392FC9017C010E949241682F812F902F3D
:10099000A5010E94B943E7C0873689F40E94B3419C
:1009A000182F092F282F392FC9017C010E9492414D
:1009B000682F812F902FA5010E942843D6C0823531
:1009C000D9F469817A818B819C81660F771F881F9A
:1009D000991F6F5F7F4F8F4F9F4F0E94DD400E9496
:1009E000A14169817A818B819C81660F771F881F65
:1009F000991F0E94DD4045C0833629F40E94924130
:100A0000E82EFF24ADCF8334A9F40E949241D82E62
:100A1000CC24EC28FD2889819A81880F991FB70181
:100A20000E94154189819A81AB81BC810196A11DEB
:100A3000B11D89CF8D36A1F469817A818B819C812A
:100A40006030F0E47F07F0E08F07F0E09F0708F0E8
:100A500089C0660F771F881F991F0E943E4180CF73
:100A6000843449F409811A810E949241682FC80197
:100A70000E94244608C0843691F489819A810E949C
:100A80000B460E94A14189819A81AB81BC8101966C
:100A9000A11DB11D89839A83AB83BC8366C08C364C
:100AA00029F40E9492410E94F9405ACF823719F4EA
:100AB0000E94FD4058C0863411F480E007C08E3497
:100AC00011F481E003C0813521F482E00E94EE4000
:100AD0004AC0803509F444CF8C3409F441CF8534C1
:100AE00029F48DE00E94A14110E040C0803711F44C
:100AF00083E539C0843729F48BE70E94A14180E067
:100B000032C08857823010F0943519F40E94924117
:100B100027CF9335A1F488E50E94A14182E40E9489
:100B2000A1418FE60E94A1418FE60E94A14184E786
:100B30000E94A1418BE20E94A1418BE214C0963534
:100B400029F481E30E94A14187E30DC0933741F46A
:100B500081E40E94A14185E90E94A1418EE103C088
:100B60009B3119F08FE30E94A14111E00E946B417B
:100B7000112309F0D0CE0E9416420E94154780E84A
:100B8000E0E6F6E082830C94000080E090E024969A
:100B9000CDBFDEBFCF91DF911F910F91FF90EF90FE
:100BA000DF90CF90BF90AF909F908F907F900895EF
:100BB000CF92DF92EF92FF921F936B017C01CA01EB
:100BC000122F0E941A41112329F0C701B6010E9479
:100BD000444104C0C701B6010E943E410E946B41DE
:100BE0001F91FF90EF90DF90CF9008958091CF01FB
:100BF00087FDFCCF8091CF0181FF0CC086E3E0EC44
:100C0000F1E08287EBECF1E021E030E088ED90E06C
:100C100084BF20830895282FE0ECF1E08091CF017C
:100C200087FDFACF2093C0019F719183128286E0E5
:100C30008287EBECF1E021E030E088ED90E084BFCA
:100C400020838091C4010895FF920F931F938C011C
:100C5000F62E0E94F645E0ECF1E083E38287008304
:100C60001F7111831282F48285E38287EBECF1E03D
:100C700021E030E088ED90E084BF20831F910F9148
:100C8000FF900895CF92DF92EF92FF920F931F9300
:100C9000CF93DF93DC01EB01F42EE52EE0ECF1E0E5
:100CA00012828091CF0187FDFCCF8F2D9E2D9C015C
:100CB00080ECC82E81E0D82E96E008ED10E041E0EF
:100CC00050E06BEC71E010C0A093C0018B2F8F71CE
:100CD000F60181839287FB0104BF40838091C401A8
:100CE00089931196215030402115310569F78F2DD8
:100CF0009E2DDF91CF911F910F91FF90EF90DF908C
:100D0000CF9008956F927F928F929F92AF92BF92F1
:100D1000CF92DF92EF92FF920F931F93CF93DF93C7
:100D2000EC017B01042FB52E8F71182F0E94F64520
:100D3000E0ECF1E08091CF0187FDFACFAE01411BDD
:100D4000510983E3828711821282202F3B2DC90132
:100D50009C01E0EC8E2EE1E09E2E75E3A72E68ED5F
:100D6000C62ED12CC1E0D0E06BEC71E090EC692E86
:100D700091E0792E93E326C01093C001D7018C91A6
:100D8000F40184832150304019F01F5F1032B9F410
:100D90004093C001852F8F71D40111968C931197C8
:100DA0001A96AC92D601FB01A4BFC0838091CF01FB
:100DB00087FDFCCF405E5F4FF301928710E00894FF
:100DC000E11CF11C21153105B9F6802F9B2DDF9117
:100DD000CF911F910F91FF90EF90DF90CF90BF9038
:100DE000AF909F908F907F906F9008958091CF01EA
:100DF00087FDFCCF80E3E0ECF1E08287EBECF1E0F3
:100E000021E030E088ED90E084BF20830895E0E4A5
:100E1000F6E0818188608183E0EAF8E083E18683FF
:100E200080EC87838CE184830895E0EAF8E0148203
:100E30000895FC0187E091E08083918380E008952C
:100E400082E00895DF92EF92FF920F931F93DFB637
:100E5000F894E12C80E4F82E012D112DC801B70182
:100E60000E940F410E946B4180E091E0A0E0B0E061
:100E7000E80EF91E0A1F1B1F90E0E91690E8F9061C
:100E800090E0090790E0190749F71092CA01DFBE08
:100E900080E01F910F91FF90EF90DF9008951F93D6
:100EA0001FB7613020E8720720E0820720E0920738
:100EB00010F083E009C0F8940E940F410E946B413A
:100EC0001092CA011FBF80E01F9108951F931FB7A2
:100ED000F8940E941A410E9400410E946B410E94B6
:100EE00004410E946B411092CA011FBF80E01F9114
:100EF00008951F931FB7613030E8730730E0830710
:100F000030E0930710F083E007C0F8940E94D845C2
:100F10001092CA011FBF80E01F9108956050704C6D
:0E0F20008F4F9F4F0E9479470895F894FFCF9E
:00000001FF
