:107000005FC0000078C0000076C0000074C00000BF
:1070100072C0000070C000006EC000006CC00000B4
:107020006AC0000068C00000DAC4000064C000004C
:1070300062C0000060C000005EC000005CC00000D4
:107040005AC000009DC0000056C0000054C000009F
:1070500052C0000050C000004EC000004CC00000F4
:107060004AC0000048C0000046C0000044C0000004
:1070700042C0000040C000003EC000003CC0000014
:107080003AC0000038C0000036C0000034C0000024
:1070900032C0000030C000002EC000002CC0000034
:1070A0002AC0000028C0000026C00000583E713EE3
:1070B000153F713E153FA63EC83E153FE83EFA3EDD
:1070C00011241FBECFEFDAE0DEBFCDBF11E0A0E09C
:1070D000B1E0E4EBFEE702C005900D92A83AB107DB
:1070E000D9F721E0A8EAB1E001C01D92A13CB207A6
:1070F000E1F720D3DDC684CF84E08093E90080915E
:10710000E80085FD0EC08091E8008B778093E80051
:107110008091E80082FDF3CF8EB38111F9CF80E03A
:1071200008958091F100089593E09093E900909183
:10713000E80095FF0AC08093F1005D9884E690E036
:107140009093AF018093AE0108959091E8009E77EF
:107150009093E8009091E80090FDEDCF9EB39111DF
:10716000F9CF0895F89410926F001092810081E099
:1071700085BF15BE47985D9A289A0C940000089523
:107180001F920F920FB60F9211242F938F939F93FC
:10719000EF93FF9310928500109284008091AE01CE
:1071A0009091AF01009741F001979093AF018093C8
:1071B000AE01892B09F45D9A8091AC019091AD01EB
:1071C000009741F001979093AD018093AC01892B1A
:1071D00009F4289A8091A8019091A90101969093B1
:1071E000A9018093A801E0E0F0E0859194910196D7
:1071F00049F08091AA019091AB0101969093AB0167
:107200008093AA01FF91EF919F918F912F910F9001
:107210000FBE0F901F90189542E061EC82E05AD3A8
:1072200042E161E883E056D342E160E884E052C382
:107230008091B901982F9F77913239F59091BA01D9
:10724000903291F0913209F5813AF9F48091E80099
:10725000877F8093E80067E070E082E091E070D47F
:107260008091E8008B770FC0813279F48091E8003B
:10727000877F8093E80067E070E082E091E0B9D416
:107280008091E8008E778093E80008954F925F9296
:107290006F927F928F929F92AF92BF92CF92DF9226
:1072A000EF92FF92CF93DF9384E08093E900809187
:1072B000E80082FF30C2289884E690E09093AD0108
:1072C0008093AC0119DFD82F853481F48CE49DE1E3
:1072D0009093AB018093AA0107B600FCFDCFF9990A
:1072E000FECF81E180935700E89503C0843521F4F7
:1072F00003DF8DE019DFE6C18C34D9F38035C9F3A3
:10730000843721F484E410DF80E0F4CF813611F477
:1073100089E5F0CF813491F4EFDEC82FEDDE90E007
:10732000880F991F2C2F30E0322F2227330F822B0A
:10733000932BAA2797FDA095BA2F98C1803711F4F7
:1073400083E5D8CF833549F4CFE9D1E08991ECDEEC
:1073500021E0C63AD207D1F7B5C1863521F481E3E1
:10736000E3DE80E3C7CF833731F487E8DDDE85E9EC
:10737000DBDE8EE1BFCF8536B9F4E0E0F0E083E0FC
:1073800095E080935700E89507B600FCFDCF9093F9
:107390005700E89507B600FCFDCFE058FF4FE11518
:1073A00020E7F20771F7A5CF823719F4E1E0F0E0AA
:1073B0000EC0863419F4E0E0F0E009C08E3419F410
:1073C000E3E0F0E004C0813539F4E2E0F0E089E088
:1073D0008093570084918ECF823631F489E5A4DE04
:1073E00080E0A2DE80E886CF823419F0873609F08B
:1073F000D5C01092AB011092AA017EDED82E7CDEA1
:10740000E82E7ADEC82F8BEB8C0F823010F08FE3E2
:1074100071CFF12CFD2810926F00D73609F045C0CE
:1074200081E180935700E8955701912CD1E0A11498
:10743000B10409F4AFC0C090B101D090B201E090A6
:10744000B301F090B401C634B9F4E92DF0E0EC29B1
:10745000FD29849169DE992069F082E0C80ED11C73
:10746000E11CF11CC092B101D092B201E092B301D3
:10747000F092B4019D2615C0D701C601B695A79517
:1074800097958795FFD450DEE2E0CE0ED11CE11C2B
:10749000F11CC092B101D092B201E092B301F0921E
:1074A000B401F1E0AF1AB108C2CF8090B101909061
:1074B000B201A090B301B090B401C63421F0C12C48
:1074C000D12CD1E030C083E0F40180935700E895DF
:1074D00007B600FCFDCFF3CFC63461F5DD2039F1EE
:1074E0004090B1015090B2016090B3017090B4012E
:1074F00003DE2C2D30E0382BF2010901D093570028
:10750000E8951124F2E04F0E511C611C711C409251
:10751000B1015092B2016092B3017092B401DD26C4
:1075200021E0E21AF108E114F104B1F627C0E4DD2C
:10753000C82EF5CFE1DD682F8091B1019091B201A5
:10754000A091B301B091B401B695A7959795879591
:10755000A1D44091B1015091B2016091B3017091F9
:10756000B4014E5F5F4F6F4F7F4F4093B101509317
:10757000B2016093B3017093B401D2CFC63441F429
:1075800085E0F40180935700E89507B600FCFDCF35
:107590008DE0CADD82E080936F0094C0833471F483
:1075A000C091B101D091B201A7DD90E021E0FE01D0
:1075B0000C0120935700E89511249BCE833601F5EA
:1075C000C090B101D090B201E090B301F090B4014D
:1075D00093DDF601E16090E021E00C01209357007B
:1075E000E8951124F2E0CF0ED11CE11CF11CC092F1
:1075F000B101D092B201E092B301F092B40179CE20
:107600008D3661F4E091B101F091B20185E0809393
:107610005700E89507B600FCFDCF6BCE823551F4DC
:10762000E091B101F091B201C591D4918D2F7CDD33
:107630008C2F60CE843419F55FDD682F8091B10105
:107640009091B201A091B301B091B401B695A79504
:10765000979587951FD48091B1019091B201A09127
:10766000B301B091B4010296A11DB11D8093B10187
:107670009093B201A093B301B093B4013ACE843693
:10768000F1F4C090B101D090B201E090B301F0905C
:10769000B401D701C601B695A79597958795F2D302
:1076A00043DD22E0C20ED11CE11CF11CC092B101ED
:1076B000D092B201E092B301F092B40103C08B31D9
:1076C00009F0A5CE83E08093E9009091E8008091D5
:1076D000E8008E778093E80095FD11C08091E80066
:1076E00080FD04C08EB38111F9CF15C08091E800F0
:1076F0008E778093E80003C08EB3882361F0809179
:10770000E80080FFF9CF84E08093E9008091E800F1
:107710008B778093E800DF91CF91FF90EF90DF901F
:10772000CF90BF90AF909F908F907F906F905F9021
:107730004F900895CF93309100081092000824B71D
:1077400014BE88E10FB6F894809360001092600038
:107750000FBE90E080E80FB6F8948093610090939C
:1077600061000FBE81E085BF82E085BF3F9A209A0D
:10777000559A90E8909361001092610047985D9A45
:10778000289A109289009AEF9093880080936F0056
:1077900083E080938100E0E0F0E085919491019690
:1077A00019F081E08093B00121FF20C08091000199
:1077B0003817E1F0809300087894809101018823C4
:1077C00039F08091A8019091A90188379140C8F3C0
:1077D0001092010110920008F89481E08093010159
:1077E0008091B001882371F0BDDC0CC020FF04C083
:1077F0008091B0018111F8CF23FF04C08091000176
:107800003813EECFD4D078941092AB011092AA0125
:10781000CEEF80910101882301F138DD1CD38091E6
:10782000AA019091AB0181349F4110F010920101A7
:107830008091B5019091B60101969093B601809325
:10784000B501292F97FF02C02C2F291B220F2817C3
:1078500010F44798DECF479ADCCF8091E00081603A
:107860008093E0007FDC80E090E0CF910895292FA5
:1078700030E02230310539F02330310549F0213034
:10788000310561F410C08EE390E02FE431E01EC0BA
:10789000882371F0813089F08230A1F080E090E09F
:1078A00020E030E013C082E190E02DE831E00EC02E
:1078B00084E090E02BE431E009C082E290E027E22E
:1078C00031E004C08CE190E029E031E0FA0131833D
:1078D000208308958093E900EBEEF0E080818160E1
:1078E0008083EDEEF0E010826093EC0040838091A5
:1078F000EE00881F8827881F08958091B90187FDB1
:1079000005C08091E80080FF0DC010C08091E800A4
:1079100082FD04C08EB38111F9CF08958091E800F3
:107920008B7707C08EB38111ECCF08958091E8006A
:107930008E778093E80008950F931F93CF93DF9382
:1079400041D048D0C8EDD0E088818F778883888186
:107950008068888388818F7D888319BC1EBA1092C5
:10796000B70100EE10E0F80180818B7F8083888171
:107970008160888342E060E080E0ACDFE1EEF0E02F
:1079800080818E7F8083E2EEF0E080818160808361
:10799000808188608083F80180818E7F80838881E8
:1079A00080618883DF91CF911F910F910895E7ED5A
:1079B000F0E08081816080838AE482BF81E08093EF
:1079C000B801BACFE8EDF0E080818E7F808310921D
:1079D000E20008951092DA001092E10008951F92DB
:1079E0000F920FB60F9211242F933F934F935F93F3
:1079F0006F937F938F939F93AF93BF93EF93FF9377
:107A00008091DA0080FF1BC08091D80080FF17C0F2
:107A10008091DA008E7F8093DA008091D90080FF18
:107A20000BC080E189BD82E189BD09B400FEFDCFB4
:107A300081E08EBB0FD203C019BC1EBA0BD280915D
:107A4000E10080FF17C08091E20080FF13C08091A9
:107A5000E2008E7F8093E2008091E200806180935B
:107A6000E2008091D80080628093D80019BC85E044
:107A70008EBBF0D18091E10084FF2CC08091E200A8
:107A800084FF28C080E189BD82E189BD09B400FE80
:107A9000FDCF8091D8008F7D8093D8008091E10048
:107AA0008F7E8093E1008091E2008F7E8093E200E0
:107AB0008091E20081608093E2008091B7018111A2
:107AC00004C08091E30087FF02C084E001C081E030
:107AD0008EBBC0D18091E10083FF21C08091E20084
:107AE00083FF1DC08091E100877F8093E10082E0E9
:107AF0008EBB1092B7018091E1008E7F8093E100F0
:107B00008091E2008E7F8093E2008091E2008061AC
:107B10008093E20042E060E080E0DCDE9BD1FF91F8
:107B2000EF91BF91AF919F918F917F916F915F91F5
:107B30004F913F912F910F900FBE0F901F9018956E
:107B40002091BF013091C0012617370748F0611519
:107B5000710539F42091E8002E772093E80001C0E8
:107B6000B901FC0120E061157105A1F18EB38823F4
:107B7000E1F18530E1F18091E80083FD34C080912E
:107B8000E80082FF06C08091E80082FF26C080E006
:107B900008958091E80080FFE6CF2091F300809166
:107BA000F20090E0922B6115710551F0883091053B
:107BB00038F421912093F100615071090196F3CFBF
:107BC00021E0089709F020E08091E8008E7780930B
:107BD000E800C9CF2111CACFD6CF8EB3882329F0B0
:107BE000853089F604C081E0089582E0089583E03D
:107BF00008956115710529F42091E8002B772093F1
:107C0000E8006115710521F12EB3222351F12530D1
:107C100051F12091E80023FD20C02091E80022FFCF
:107C2000F3CFFC01CF014091F3002091F20030E04E
:107C3000342B232B09F38091F1008193CF01615004
:107C4000710981F7D9CF8EB3882359F0853059F067
:107C50008091E80080FFF7CF02C081E0089580E0C6
:107C6000089582E0089583E008950F931F93CF93C2
:107C7000DF9300D0CDB7DEB7E9EBF1E08091F10002
:107C8000819381E0E13CF807C9F7D2DA8091E800FE
:107C900083FFCBC02091B9013091BA01832F90E0CE
:107CA0008A30910508F0C1C0FC01EA5AF74CE4C0E3
:107CB000223809F0BAC08091BD0187708093E90035
:107CC0009091EB001092E9008091E800877F80930B
:107CD000E80095FB882780F98093F1001092F1006D
:107CE00082C0822F8D7F09F0A0C0223009F09DC094
:107CF0008091BB01811124C02091BD01277009F43E
:107D000094C02093E9008091EB0080FF19C080911E
:107D1000EB00333011F4806211C080618093EB007E
:107D200081E090E0022E01C0880F0A94EAF7809368
:107D3000EA001092EA008091EB0088608093EB00EB
:107D40001092E9008091E800877F50C021116DC03A
:107D50001091BB011F770FB7F8948091E800877FDF
:107D60008093E800CADD8091E80080FFFCCF80911D
:107D7000E3008078812B8093E30080688093E300A8
:107D8000112311F083E001C082E08EBB0FBF4DC014
:107D90002058223008F049C0AE014F5F5F4F60911C
:107DA000BD018091BB019091BC0161DD009709F498
:107DB0003CC02091E800277F2093E800BC01898126
:107DC0009A81BEDE8091E8008B778093E8002DC019
:107DD000203859F58091E800877F8093E8008091F2
:107DE000B7018093F1008091E8008E778093E800DE
:107DF00084DD1BC0211119C09091BB019230A8F401
:107E00008091E800877F8093E8009093B70175DD4B
:107E10008091B701811104C08091E30087FF02C007
:107E200084E001C081E08EBBF7D98091E80083FF38
:107E30000AC08091EB0080628093EB008091E800A3
:107E4000877F8093E8000F900F90DF91CF911F9173
:107E50000F9108950895CF938EB3882359F0C09160
:107E6000E900C7701092E9008091E80083FDFDDE13
:107E7000C093E900CF910895EE0FFF1F0590F49194
:107E8000E02D0994F999FECF92BD81BDF89A99270A
:107E900080B50895262FF999FECF1FBA92BD81BDF6
:107EA00020BD0FB6F894FA9AF99A0FBE019608957C
:047EB000F894FFCF74
:107EB4007701000000000000081C0364006F0067E5
:107EC400002000680075006E0074006500720020D8
:107ED4000041004700000022034C0069006E006965
:107EE400006E006F0020004F006E0065002000202F
:107EF40000200020002000200000000403090409E1
:107F0400023E000201008032090400000102020165
:107F140000052400100104240204052406000107BE
:107F24000582030800FF09040100020A000000079B
:107F3400050402100001070583021000011201105C
:107F44000102000008032A010001000201000143AC
:087F540041544552494E410021
:040000030000700089
:00000001FF
