:10000000A2C00000BBC00000B9C00000B7C0000023
:10001000B5C00000B3C00000B1C00000AFC0000018
:10002000ADC00000ABC00000A9C0000059C3000073
:100030001DC30000A3C00000A1C000009FC00000BD
:100040009DC000009BC0000099C0000097C0000048
:1000500095C0000093C0000091C0000006C10000E0
:100060008DC000008BC0000089C0000087C0000068
:1000700085C0000083C0000081C000007FC0000078
:100080007DC000007BC0000079C0000077C0000088
:1000900075C0000073C000001201100102000008CA
:1000A000EB034B2001000102DC0109023E000201CA
:1000B00000C0320904000001020201000524000111
:1000C0001004240206052406000107058203080027
:1000D000FF09040100020A000000070504024000B5
:1000E00001070583024000010403090432034100B3
:1000F00072006400750069006E006F002000280027
:100100007700770077002E006100720064007500B0
:1001100069006E006F002E0063006300290000007C
:100120002403410072006400750069006E006F00D6
:1001300020004D006500670061002000320035009E
:1001400036003000000011241FBECFEFD2E0DEBF2A
:10015000CDBF11E0A0E0B1E0E8EEFFE002C0059005
:100160000D92A631B107D9F712E0A6E1B1E001C0C6
:100170001D92AF32B107E1F7E3D034C741CF9C0104
:10018000DC01AE57BF4FED91FC9111974191119653
:10019000FC93EE9380589F4FE817F90711F42D93C5
:1001A0003C939FB7F894F901EC57FF4F8081815041
:1001B00080839FBF842F08950F931F93FC01848930
:1001C000813019F0823019F404C010E303C010E04C
:1001D00001C010E28389823009F418608589873074
:1001E00031F0883031F0863029F4126003C0146099
:1001F00001C016601092C9001092C8001092CA0087
:10020000278530894189528900E0203081EE380706
:1002100080E0480780E0580709F401E0CA01B9010D
:100220009695879577956795002329F0605C7D4BBF
:10023000804F9F4F04C060587B47814E9F4FB0D680
:10024000215030403093CD002093CC001093CA0051
:10025000002311F482E001C080E08093C80088E9A7
:100260008093C9001F910F9108951F920F920FB6AE
:100270000F9211242F938F939F93EF93FF9390915D
:10028000CE008EB38430F1F4E0919901F0919A019F
:100290009083E0919901F0919A01CF01019690939A
:1002A0009A01809399018959914021F489E191E063
:1002B000928381839FB7F89480919D018F5F809393
:1002C0009D019FBFFF91EF919F918F912F910F9073
:1002D0000FBE0F901F901895FC01858580FF02C00E
:1002E0005F9808955F9A089580E091E0ECC580E002
:1002F00091E0A0C584B7877F84BF28E10FB6F8944A
:1003000020936000109260000FBE87E690E090930B
:10031000CD008093CC0086E08093CA001092C80084
:100320002093C900539A5A9A8AB180638AB98BB1D3
:1003300080638BB98CD184E085BD5F9A579A08950C
:100340000F931F93CF93DF93D5DF2FB7F8948EE9E8
:1003500091E090931F0280931E029093210280935C
:1003600020022FBF2FB7F89489E191E090939A0172
:100370008093990190939C0180939B012FBF789467
:10038000CEE9D1E003E08FB7F894909122028FBFBD
:10039000903809F180E091E0C3D497FD1CC0E09152
:1003A0001E02F0911F028083E0911E02F0911F0255
:1003B000CF01019690931F0280931E028E519240AE
:1003C00011F4D283C1839FB7F894809122028F5F8A
:1003D000809322029FBF8FB7F89410919D018FBF29
:1003E000A89902C0113678F1A89A80919D018823BE
:1003F00061F05D980093160108C089E191E0BFDECD
:10040000682F80E091E0F2D411501123B1F7809170
:100410001601882351F080911601815080931601B6
:1004200080911601882309F45D9A80911701882331
:1004300051F080911701815080931701809117012D
:10044000882309F45C9A8FB7F894909122028FBFA9
:10045000992369F08EE991E092DE982F8091C8008F
:1004600085FFFCCF9093CE005C980093170180E04D
:1004700091E0ADD442D487CFDA01923049F0933085
:1004800061F09130F9F4E8E9F0E022E130E01EC0DB
:10049000EAEAF0E02EE330E019C0813049F0813023
:1004A00018F0823079F408C0E8EEF0E0849107C0DB
:1004B000ECEEF0E0849103C0E0E2F1E08491282FBB
:1004C00030E004C0E0E0F0E020E030E0ED93FC93A9
:1004D000C9010895382F282F2CC02093E900231735
:1004E00021F4762F942F50E006C07091EC0090918B
:1004F000ED005091F00091FF1BC08091EB008E7FCA
:100500008093EB008091ED0082708093ED008091EC
:10051000EB0081608093EB007093EC009093ED0012
:100520005093F0008091EE0087FD02C080E00895B6
:100530002F5F253090F23093E90081E0089580919B
:10054000270288238CF403C08EB38823B1F08091F6
:10055000E80082FFF9CF8091E8008B778093E80074
:1005600008958EB3882349F08091E80080FFF9CF89
:100570008091E8008E778093E80008954091E40030
:100580005091E50024E68091EC0080FF05C0809149
:10059000E80080FF05C021C08091E80082FD1DC0F9
:1005A0008EB3882311F482E00895853011F483E03E
:1005B00008958091EB0085FF02C081E0089580914D
:1005C000E4009091E50084179507E9F2222311F4E5
:1005D00084E008952150AC01D6CF80E0089540D04A
:1005E00042D08091D800982F9F779093D800806850
:1005F0008093D80084E089BD89B5826089BD09B443
:1006000000FEFDCF8091D8008F7D8093D8001EBA68
:1006100010922502109224021092230280E060E0E2
:1006200042E058DF8091E1008E7F8093E10080916D
:10063000E20081608093E2008091E2008860809314
:10064000E2008091E0008E7F8093E0000895E3E671
:10065000F0E080818E7F808381E080932602BFCF8F
:100660001092E20008951092E10008951F920F92F7
:100670000FB60F9211241F932F933F934F935F93C5
:100680006F937F938F939F93AF93BF93EF93FF935A
:10069000E9EEF0E0108117701082E0EFF0E0808169
:1006A000877F80837894C6D0F894A9EEB0E01C923E
:1006B000E0EFF0E08081886080831C93FF91EF91F0
:1006C000BF91AF919F918F917F916F915F914F916A
:1006D0003F912F911F910F900FBE0F901F90189573
:1006E0001F920F920FB60F9211242F933F934F93A7
:1006F0005F936F937F938F939F93AF93BF93EF938A
:10070000FF938091E10080FF1BC08091E20080FF99
:1007100017C08091E1008E7F8093E1008091E2001C
:100720008E7F8093E2008091E20080618093E200FE
:100730008091D80080628093D80019BC1EBAE4D1A1
:100740008091E10084FF2DC08091E20084FF29C0E8
:1007500084E089BD89B5826089BD09B400FEFDCF02
:100760008091D8008F7D8093D8008091E1008F7EAA
:100770008093E1008091E2008F7E8093E20080917F
:10078000E20081608093E20080912502882331F4A9
:100790008091E30087FD02C081E001C084E08EBB50
:1007A000B3D18091E10083FF26C08091E20083FFF6
:1007B00022C08091E100877F8093E10082E08EBBC0
:1007C000109225028091E1008E7F8093E10080915C
:1007D000E2008E7F8093E2008091E200806180934E
:1007E000E20080E060E042E075DE8091F000886029
:1007F0008093F00089D18091E10082FF0AC080914E
:10080000E20082FF06C08091E1008B7F8093E100CF
:100810007BD1FF91EF91BF91AF919F918F917F918C
:100820006F915F914F913F912F910F900FBE0F905D
:100830001F9018950F931F93DF93CF93CDB7DEB71B
:10084000AC970FB6F894DEBF0FBECDBFE7E2F2E083
:100850008091F100819322E0EF32F207C9F744DD85
:100860008091E80083FF37C18091270230912802F0
:10087000353009F487C0363040F43130C9F13130B9
:1008800070F0333009F027C133C0383009F4F6C0B6
:10089000393009F405C1363009F01DC198C08038DF
:1008A00021F0823809F017C108C09091230280918D
:1008B0002402882399F0926011C080912B028770E6
:1008C0008093E9008091EB0090E025E09695879574
:1008D0002A95E1F7982F91701092E9008091E80035
:1008E000877F8093E8009093F1001092F100D1C0CF
:1008F000882319F0823009F0EEC090E08F7190707B
:10090000009721F0029709F0E6C00CC080912902FF
:10091000813009F0E0C010922402333069F58093F1
:1009200024022AC080912902882331F520912B02CC
:10093000277009F4D0C02093E9008091EB0080FF7C
:100940001BC0333021F48091EB00806213C0809192
:10095000EB0080618093EB0081E090E002C0880FA3
:10096000991F2A95E2F78093EA001092EA0080919D
:10097000EB0088608093EB001092E9008091E80022
:10098000877F8AC0882309F0A6C0109129021F77AB
:100990000FB7F8948091E800877F8093E800CFDD5F
:1009A0008091E80080FFFCCF112311F482E001C0A8
:1009B00083E08EBB8091E3008078182B1093E300D6
:1009C0008091E30080688093E3000FBF84C080586B
:1009D000823008F080C08091290290912A0223E0A1
:1009E0008C3D920799F57FB7F894DE0115966EE07D
:1009F00040E050E011E2E62FF0E0109357008491C0
:100A000040FF03C082958F706F5F8F70282F30E09A
:100A10008A3018F0C901C79602C0C901C0968D93EB
:100A20009D934F5F5F4F4431510529F77FBF8AE2A5
:100A30008B8383E08C838091E800877F8093E8003C
:100A4000CE0103966AE270E060D012C060912B0282
:100A5000AE014F5F5F4F10DDBC01009709F43BC052
:100A60008091E800877F8093E80089819A81A9D0EE
:100A70008091E8008B778093E8002DC0803859F58D
:100A80008091E800877F8093E80080912502809321
:100A9000F1008091E8008E778093E80050DD1BC064
:100AA0008823C9F4909129029230A8F48091E8003B
:100AB000877F8093E8009093250241DD8091250295
:100AC000882331F48091E30087FD02C081E001C0FA
:100AD00084E08EBB0CDC8091E80083FF0AC080912B
:100AE000EB0080628093EB008091E800877F809329
:100AF000E800AC960FB6F894DEBF0FBECDBFCF9125
:100B0000DF911F910F91089508959C0140912D024E
:100B100050912E024617570718F4F90190E03CC097
:100B20006115710511F0AB01F8CF8091E8008E7767
:100B30008093E80040E050E0F0CF8EB38823E9F1E5
:100B40008530E9F18091E80083FF02C081E00895DB
:100B50008091E80082FD2BC08091E80080FF1CC0DE
:100B60008091F200282F30E007C081918093F1003E
:100B7000415050402F5F3F4F4115510519F028302B
:100B8000310598F390E02830310509F491E0809127
:100B9000E8008E778093E8004115510571F699239E
:100BA00061F605C08EB3882341F0853041F0809115
:100BB000E80082FFF7CF80E0089582E0089583E0A7
:100BC00008959C0140912D0250912E02461757071F
:100BD00018F4F90190E03FC06115710511F0AB0107
:100BE000F8CF8091E8008E778093E80040E050E0F5
:100BF000F0CF8EB3882309F43FC0853009F43EC09E
:100C00008091E80083FF02C081E008958091E800B0
:100C100082FD2CC08091E80080FF1DC08091F20011
:100C2000282F30E008C084918093F1003196415024
:100C300050402F5F3F4F4115510519F028303105C5
:100C400090F390E02830310509F491E08091E800BC
:100C50008E778093E8004115510559F6992349F69E
:100C600005C08EB3882341F0853041F08091E800C3
:100C700082FFF7CF80E0089582E0089583E0089531
:100C80009C016115710529F48091E8008B778093B0
:100C9000E800F9011FC08EB3882359F1853059F15E
:100CA0008091E80083FF02C081E008958091E80010
:100CB00082FFF1CF06C08091F100819361507040B6
:100CC00021F08091F2008823B1F78091E8008B77C2
:100CD0008093E80061157105F1F605C08EB3882395
:100CE00041F0853041F08091E80080FFF7CF80E04F
:100CF000089582E0089583E008951F938EB38823BA
:100D000061F01091E9001092E9008091E80083FF02
:100D100001C090DD17701093E9001F9108950895A8
:100D2000FC018EB3843021F587859089A189B28931
:100D30000097A105B105E1F085818093E9008091DC
:100D4000E80082FF15C08091F200882319F42FEF8C
:100D50003FEF04C08091F100282F30E08091F20035
:100D6000882341F48091E8008B778093E80002C0EB
:100D70002FEF3FEFC9010895FC018EB3843011F5C8
:100D800087859089A189B2890097A105B105D1F025
:100D900081818093E9008091F2008823A9F09091ED
:100DA000E8008091E8008E778093E80095FD0CC004
:100DB000E5DB982F882349F48091E8008E778093B3
:100DC000E80003C092E001C090E0892F0895FC0183
:100DD0008EB3843051F487859089A189B2890097B8
:100DE000A105B10511F0CF01C7CF08951F93FC01F4
:100DF000162F8EB38430D9F487859089A189B28962
:100E00000097A105B10599F081818093E900809157
:100E1000E80085FD08C08091E8008E778093E800A7
:100E2000ADDB882329F41093F10080E001C082E05B
:100E30001F9108951F93CF93DF93EC010D96FC0152
:100E400089E0DF011D928A95E9F711E08981181781
:100E500029F4EA81FB818C8162E010C08D81181732
:100E600031F4EE81FF81888562E030E008C0898539
:100E7000181709F5EA85FB858C8563E031E0882346
:100E800011F440E001C044E020E088E090E003C0BD
:100E90002F5F880F991F8E179F07D0F36295660FFB
:100EA000660F607C632B42602295207F422B812F4E
:100EB00011DB882321F01F5F153041F681E0DF91BF
:100EC000CF911F910895CF93DF93EC018091E800BB
:100ED00083FF63C0888190E020912B0230912C0227
:100EE0002817390709F059C080912802813261F032
:100EF000823220F4803209F050C01BC0823279F176
:100F0000833209F04AC03BC080912702813A09F040
:100F100044C08091E800877F8093E800CE010F965F
:100F200067E070E0F2DD8091E8008B778093E80065
:100F300034C080912702813281F58091E800877F5B
:100F40008093E800CE010F9667E070E099DE809113
:100F5000E8008E778093E800CE012ED91EC08091E4
:100F600027028132D1F48091E800877F8093E800E6
:100F7000E6DA809129028D87CE01AED90EC080912C
:100F80002702813251F48091E800877F8093E80046
:100F9000D6DACE0160912902C2DEDF91CF910895A9
:100FA000A1E21A2EAA1BBB1BFD010DC0AA1FBB1F6D
:100FB000EE1FFF1FA217B307E407F50720F0A21BDF
:100FC000B30BE40BF50B661F771F881F991F1A944C
:100FD00069F760957095809590959B01AC01BD0176
:080FE000CF010895F894FFCF42
:100FE8000003400000044000000208000000000068
:060FF800000000000000F3
:00000001FF
