:100000008FC00000A8C00000A6C00000A4C000006F
:10001000A2C00000A0C000009EC000009CC0000064
:100020009AC0000098C0000096C0000045C40000BF
:10003000E9C4000090C000008EC000008CC0000029
:100040008AC0000088C0000086C000007BC100009C
:1000500082C0000080C000007EC0000097C1000088
:100060007AC0000078C0000076C0000074C00000B4
:1000700072C0000022034100720064007500690034
:100080006E006F0020004D006500670061002000D9
:10009000410044004B000000320341007200640044
:1000A000750069006E006F0020002800770077005F
:1000B00077002E00610072006400750069006E0018
:1000C0006F002E0063006300290000000403090490
:1000D00009023E00020100C03209040000010202D0
:1000E0000100052400100104240206052406000175
:1000F000070582030800FF09040100020A0000004E
:1001000007050402400005070583024000051201AF
:1001100010010200000841233F0002000102DC013F
:1001200011241FBECFEFD2E0DEBFCDBF11E0A0E0B3
:10013000B1E0E2E6F0E102C005900D92AC31B1070A
:10014000D9F722E0ACE1B1E001C01D92A234B207C0
:10015000E1F75DD084C754CFFC01A081B1816C93DD
:1001600080819181019691838083268137818217D6
:10017000930721F484819581918380832FB7F8942C
:10018000828593850196938782872FBF0895FC010E
:10019000A281B3818D91B383A28326813781A21777
:1001A000B30721F424813581338322839FB7F894E8
:1001B0002285338521503109338722879FBF0895D7
:1001C00084B7877F84BF88E10FB6F894809360007E
:1001D000109260000FBE90E080E80FB6F894809314
:1001E0006100909361000FBE8AB180638AB98BB1C0
:1001F00080638BB952D383E085BD82E084BD16BC99
:1002000099EF97BD80936E005F9A579A0895D8DF53
:10021000EAE2F2E02FB7F8948AEA91E091838083D2
:1002200093838283958384838AE292E09783868393
:1002300080E890E091878087138612862FBFEEE9D1
:10024000F1E02FB7F8948EE191E09183808393835E
:100250008283958384838EE991E09783868380E807
:1002600090E091878087138612862FBF789413E0E1
:100270008FB7F89420913402309135028FBF80916E
:100280003202909133022817390749F080E091E05B
:10029000E8D597FD04C0682F8AE292E05DDF2FB7B2
:1002A000F8948091A8019091A9012FBF009729F49B
:1002B0008091C80085FD26C03AC0209101012F70B1
:1002C0002093E9002091E80020FFF2CF5D98109381
:1002D0001D018034910510F08FE390E0082FC0E0FD
:1002E000D0E00C1729F3E091A001F091A101608109
:1002F00080E091E052D521968111DACF8EE991E02C
:1003000046DFEFCF2FB7F8948091340290913502F9
:100310002FBF892B61F05C9810931C018AE292E058
:1003200036DF9091C80095FFFCCF8093CE0080E02F
:1003300091E082D5F2D49CCF80E091E009C580E0C5
:1003400091E0BCC51F920F920FB60F9211248F93AC
:1003500080911D01882341F080911D01815080937F
:100360001D01811101C05D9A80911C01882341F01B
:1003700080911C01815080931C01811101C05C9A05
:100380008F910F900FBE0F901F9018951F920F9294
:100390000FB60F9211242F933F934F935F936F9358
:1003A0007F938F939F93AF93BF93EF93FF9360914E
:1003B000CE008EB3843089F48FB7F8942091A801D1
:1003C0003091A9018FBF8091A6019091A7012817B4
:1003D000390719F08EE991E0BFDEFF91EF91BF91EF
:1003E000AF919F918F917F916F915F914F913F91CD
:1003F0002F910F900FBE0F901F9018951F93CF93C2
:10040000DF93EC01898D813031F0823011F010E002
:1004100003C010E201C010E3888D823009F4186037
:100420008A8D873031F0883031F0863029F41260BF
:1004300003C0146001C016605B9A1092C90010924C
:10044000C8001092CA002C893D894E895F89211508
:1004500081EE38074105510571F0CA01B901969541
:1004600087957795679560587B47814E9F4FD5D587
:100470002150310902C020E130E03093CD002093BB
:10048000CC001093CA008C899D89AE89BF898115E3
:10049000914EA105B10511F480E001C082E0809386
:1004A000C80088E98093C9005B98DF91CF911F91C4
:1004B0000895FC01808980FF02C05F9808955F9ACB
:1004C0000895292F33272230310559F02330310583
:1004D00069F021303105F9F482E190E02EE031E05D
:1004E0001EC08EE390E020ED30E019C099278130E6
:1004F000910541F08230910541F0892B61F4ECECDB
:10050000F0E005C0E8E9F0E002C0E4E7F0E0849143
:1005100090E09F0104C080E090E020E030E0FA012C
:1005200031832083089520914002309141022617A3
:10053000370748F06115710539F42091E8002E77EE
:100540002093E80001C0B90120E061157105C9F1EF
:100550003EB3332309F442C0353009F441C0309131
:10056000E80033FD3FC03091E80032FF06C08091C3
:10057000E80082FF29C080E008953091E80030FF54
:10058000E4CF2091F20030E0FC01281B390BCF01B1
:10059000820F931F6115710549F08830910530F481
:1005A00081918093F10061507109F1CF21E00897AA
:1005B00009F020E08091E8008E778093E800CF0179
:1005C000C4CF2111C5CFD3CF8EB3882339F0853066
:1005D00039F08091E80083FFCACF04C082E008951B
:1005E00083E0089581E00895209140023091410216
:1005F0002617370748F06115710539F42091E80096
:100600002E772093E80001C0B90120E06115710543
:10061000D1F13EB3332309F443C0353009F442C06D
:100620003091E80033FD40C03091E80032FF06C051
:100630008091E80082FF2AC080E008953091E800B0
:1006400030FFE4CF2091F20030E0FC01281B390B91
:10065000C9018E0F9F1F6115710551F088309105FA
:1006600038F484918093F100319661507109F0CF94
:1006700021E0089709F020E08091E8008E778093D0
:10068000E800CF01C3CF2111C4CFD2CF8EB38823CE
:1006900039F0853039F08091E80083FFC9CF04C07C
:1006A00082E0089583E0089581E00895982F9530C1
:1006B00058F59093E900981739F07091EC0020916B
:1006C000ED005091F00003C0242F762F50E021FF61
:1006D00019C03091EB003E7F3093EB003091ED007C
:1006E0003D7F3093ED003091EB0031603093EB00B3
:1006F0007093EC002093ED005093F0002091EE00F9
:1007000027FF07C09F5FD3CF8F708093E90081E000
:10071000089580E008950F931F93CF93DF93062FE2
:10072000EC0110E0101769F19881992339F12C81BF
:10073000E981FA816B81892F8F70853010F080E01C
:1007400021C0223010F056E001C052E028E030E035
:1007500040E02E173F0720F44F5F220F331FF9CFE1
:100760004295407F452B991F9927991F6295660FE7
:10077000660F607C692B9ADF882309F31F5F25963B
:10078000D1CF81E0DF91CF911F910F91089580919A
:100790003A0287FD05C08091E80080FF0DC010C0BF
:1007A0008091E80082FD04C08EB38111F9CF0895D5
:1007B0008091E8008B7707C08EB38111ECCF08954C
:1007C0008091E8008E778093E80008958091E4009E
:1007D0009091E50045E62091EC0020FF20C020919B
:1007E000E80020FD20C02EB3222389F0253089F0B7
:1007F0002091EB0025FD0FC02091E4003091E50031
:100800002817390741F3415041F0C901E4CF82E094
:10081000089583E0089581E0089584E0089520918B
:10082000E80022FFE0CF80E0089540D042D08091E0
:10083000D8008F778093D8008091D800806880930B
:10084000D8008091D8008F7D8093D80084E089BD46
:1008500086E089BD09B400FEFDCF1EBA10923602B3
:10086000109238021092370242E060E080E01EDF12
:100870008091E1008E7F8093E1008091E2008160B1
:100880008093E2008091E20088608093E200809192
:10089000E0008E7F8093E0000895E3E6F0E0808141
:1008A0008E7F808381E080933902BFCF1092E20077
:1008B00008951092E10008951F920F920FB60F92C3
:1008C00011242F933F934F935F936F937F938F9355
:1008D0009F93AF93BF93EF93FF938091E10082FFCB
:1008E0000AC08091E20082FF06C08091E1008B7F08
:1008F0008093E10011D28091E10080FF16C08091C9
:10090000E20080FF12C08091E2008E7F8093E200BF
:100910008091E20080618093E2008091D800806243
:100920008093D80019BC1EBAF7D18091E10084FFF2
:100930002EC08091E20084FF2AC084E089BD86E059
:1009400089BD09B400FEFDCF8091D8008F7D8093D2
:10095000D8008091E1008F7E8093E1008091E200D9
:100960008F7E8093E2008091E20081608093E200BC
:1009700080913602882311F084E007C08091E30063
:1009800087FF02C083E001C081E08EBBC5D18091AA
:10099000E10083FF26C08091E20083FF22C08091A6
:1009A000E100877F8093E10082E08EBB10923602E7
:1009B0008091E1008E7F8093E1008091E2008E7F44
:1009C0008093E2008091E20080618093E20042E047
:1009D00060E080E06BDE8091F00088608093F00042
:1009E0009BD1FF91EF91BF91AF919F918F917F919B
:1009F0006F915F914F913F912F910F900FBE0F908C
:100A00001F9018951F920F920FB60F9211242F93DB
:100A10003F934F935F936F937F938F939F93AF9386
:100A2000BF93CF93EF93FF93C091E900CF70809174
:100A3000EC001092E9008091F000877F8093F00035
:100A400078941BD01092E9008091F0008860809328
:100A5000F000C093E900FF91EF91CF91BF91AF916A
:100A60009F918F917F916F915F914F913F912F91C6
:100A70000F900FBE0F901F9018951F93CF93DF9389
:100A8000CDB7DEB7AA970FB6F894DEBF0FBECDBFC5
:100A9000EAE3F2E08091F100819322E0E234F20790
:100AA000C9F74DDC8091E80083FF1EC190913A02A6
:100AB00080913B02853009F477C030F4813081F1B8
:100AC00068F0833069F110C1883009F4E0C08930E2
:100AD00009F4EFC0863009F007C187C0903881F073
:100AE000923809F001C180913E028F708093E90035
:100AF0008091EB0085FB882780F91092E90006C001
:100B00008091370290913802911182609091E800B3
:100B1000977F9093E8008093F1001092F100C2C09B
:100B2000292F2D7F09F0E0C0992319F0923061F050
:100B3000DBC090913C02913009F0D6C0833009F0BF
:100B400090E0909338022AC090913C02911126C007
:100B500020913E022F7009F4C7C02093E9009091C4
:100B6000EB0090FF1BC0833021F48091EB0080628A
:100B700013C08091EB0080618093EB0081E090E0F6
:100B8000022E01C0880F0A94EAF78093EA001092BF
:100B9000EA008091EB0088608093EB001092E900FE
:100BA0008091E800877F81C091119EC010913C0226
:100BB0001F778091E3008078812B8093E300809100
:100BC000E800877F8093E800E2DD8091E80080FF05
:100BD000FCCF8091E30080688093E300112311F043
:100BE00083E001C082E08EBB7FC09058923008F055
:100BF0007BC080913C0290913D028C3D23E09207A6
:100C000071F583E08A838AE289834FB7F894DE0125
:100C1000139620E03EE051E2E32FF0E050935700BE
:100C2000E49120FF03C0E295EF703F5FEF708E2FDD
:100C300090E0EA3010F0C79601C0C0968D939D9366
:100C40002F5F243149F74FBF8091E800877F809361
:100C5000E8006AE270E0CE01019665DC12C0AE01E8
:100C60004F5F5F4F60913E022CDC009709F43CC05F
:100C70002091E800277F2093E800BC0189819A81B8
:100C8000B3DC8091E8008B778093E8002DC090382A
:100C900059F58091E800877F8093E80080913602C3
:100CA0008093F1008091E8008E778093E8006FDDFB
:100CB0001BC0911119C090913C029230A8F4809110
:100CC000E800877F8093E8009093360260DD809192
:100CD0003602811104C08091E30087FF02C084E0E6
:100CE00001C081E08EBB28DB8091E80083FF0AC051
:100CF0008091E800877F8093E8008091EB0080621C
:100D00008093EB00AA960FB6F894DEBF0FBECDBF5E
:100D1000DF91CF911F9108950895CF938EB38823CB
:100D2000A9F08091E9008F709091EC0090FF02C0D3
:100D300090E801C090E0C92FC82B1092E900809183
:100D4000E80083FD9ADECF70C093E900CF9108954B
:100D5000CF93DF93EC01FC0170968BE0DF011D92D5
:100D60008A95E9F782E08C83898783E08E8761E04A
:100D7000CE010196D0DC882361F061E0CE010696B9
:100D8000CADC882331F061E0CE010B96DF91CF9170
:100D9000C2CC80E0DF91CF910895CF93C62F2EB3C0
:100DA0002430F1F4FC014489558966897789452B03
:100DB000462B472BA9F081818F708093E9008091A9
:100DC000E80085FF04C0C093F10080E00AC0809174
:100DD000E8008E778093E800F9DC8823A1F301C056
:100DE00082E0CF9108952EB3243021F5FC0144898F
:100DF000558966897789452B462B472BD9F0818108
:100E00008F708093E9008091F200882389F090919F
:100E1000E8008091E8008E778093E80095FD08C097
:100E2000D5DC811108C08091E8008E778093E800BE
:100E300080E0089582E008952EB3243089F4FC0107
:100E40004489558966897789452B462B472B41F084
:100E500021812F702093E9002091E80020FDC3CF6D
:100E600008952EB3243019F08FEF9FEF0895FC0101
:100E70004489558966897789452B462B472BA1F3F1
:100E800086818F708093E9008091E80082FFECCF2B
:100E90008091F200882321F02091F10030E002C01F
:100EA0002FEF3FEF8091F200811105C08091E800A3
:100EB0008B778093E800C90108950895CF93DF935D
:100EC000EC018091E80083FFA5C0888190E020912B
:100ED0003E0230913F022817390709F09BC08091EC
:100EE0003B02813261F020F4803209F43EC092C0AE
:100EF000823209F46BC0833209F47CC08BC08091CC
:100F00003A02813A09F086C08091E800877F809399
:100F1000E8008091E80080FFFCCF4C895D896E89F4
:100F20007F894093F100BB27A72F962F852F8093B1
:100F3000F100CB01AA27BB278093F100472F55274B
:100F4000662777274093F100888D8093F100898D83
:100F50008093F1008A8D8093F1008091E8008E7774
:100F60008093E800DF91CF9112CC80913A028132D8
:100F700009F050C08091E800877F8093E80080915D
:100F8000E80082FD04C08EB38111F9CF43C03091D7
:100F9000F1002091F1009091F1008091F1003C8BE3
:100FA0002D8B9E8B8F8B8091F100888F8091F1002B
:100FB000898F8091F1008A8F8091E8008B778093F0
:100FC000E800E5DBCE01DF91CF9118CA80913A02AB
:100FD000813201F58091E800877F8093E800D7DBBC
:100FE00080913C0290913D02998B888BCE01DF91DC
:100FF000CF915FCA80913A02813261F48091E8001A
:10100000877F8093E800C3DB60913C02CE01DF91D3
:10101000CF9153CFDF91CF910895A1E21A2EAA1B51
:10102000BB1BFD010DC0AA1FBB1FEE1FFF1FA21798
:10103000B307E407F50720F0A21BB30BE40BF50B95
:10104000661F771F881F991F1A9469F7609570951E
:10105000809590959B01AC01BD01CF010895F89456
:02106000FFCFC0
:1010620000834000000104400000018208000001EA
:0C10720000000000000000000000000072
:00000001FF
