:020000023000CC
:10E000000D9489F10D94B2F10D94B2F10D94B2F129
:10E010000D94B2F10D94B2F10D94B2F10D94B2F1F0
:10E020000D94B2F10D94B2F10D94B2F10D94B2F1E0
:10E030000D94B2F10D94B2F10D94B2F10D94B2F1D0
:10E040000D94B2F10D94B2F10D94B2F10D94B2F1C0
:10E050000D94B2F10D94B2F10D94B2F10D94B2F1B0
:10E060000D94B2F10D94B2F10D94B2F10D94B2F1A0
:10E070000D94B2F10D94B2F10D94B2F10D94B2F190
:10E080000D94B2F10D94B2F10D94B2F10D94B2F180
:10E090000D94B2F10D94B2F10D94B2F10D94B2F170
:10E0A0000D94B2F10D94B2F10D94B2F10D94B2F160
:10E0B0000D94B2F10D94B2F10D94B2F10D94B2F150
:10E0C0000D94B2F10D94B2F10D94B2F10D94B2F140
:10E0D0000D94B2F10D94B2F10D94B2F10D94B2F130
:10E0E0000D94B2F12A00593D506F727420626C6930
:10E0F0006E6B00563D73686F7720696E746572723F
:10E1000075707420566563746F727300523D447568
:10E110006D702052414D00513D51756974004C3D68
:10E120004C69737420492F4F20506F7274730048EC
:10E130003D48656C7000463D44756D7020464C410D
:10E14000534800453D44756D7020454550524F4D34
:10E1500000423D426C696E6B204C454400403D4599
:10E160004550524F4D2074657374003F3D435055E8
:10E1700020737461747300303D5A65726F2061645E
:10E18000647200504F5254004545206572722063FE
:10E190006E743D0052656164696E672045450057A5
:10E1A00072697474696E672045450020004D75736F
:10E1B000742062652061206C657474657200506F14
:10E1C0007274206E6F7420737570706F72746564F2
:10E1D000005768617420706F72743A006A6D702025
:10E1E00000726A6D702020006E6F20766563746F18
:10E1F00072005623202020414444522020206F707A
:10E2000020636F64652020202020696E737472750E
:10E210006374696F6E2061646472202020496E749B
:10E2200065727275707400342E392E3200322E30C1
:10E230002E30004465632031322032303136004CBC
:10E240006F636B20667573652020203D2000457844
:10E25000742066757365202020203D200048696782
:10E260006820667573652020203D20004C6F772064
:10E2700066757365202020203D20004350552049BD
:10E28000442020202020203D200047434320566585
:10E290007273696F6E203D2000415652204C6962B6
:10E2A00043205665723D20005F5F4156525F4152E8
:10E2B00043485F5F3D2000435055205479706520EE
:10E2C0002020203D2000436F6D70696C6564206FD5
:10E2D0006E203D20004875683F00426F6F746C6F80
:10E2E000616465723E0041726475696E6F20657885
:10E2F000706C6F7265722073746B353030563220DB
:10E300006279204D4C530041546D6567613235365A
:10E31000300011241FBECFEFD1E2DEBFCDBF01E040
:10E320000CBF12E0A0E0B2E0E6E0F8EF03E00BBFC4
:10E3300002C007900D92A430B107D9F722E0A4E003
:10E34000B2E001C01D92A231B207E1F70F94EBF2E7
:10E350000D9401FC01E20EBF0FEF0DBF11241FBE93
:10E360000D94EBF20D9400F08093C6008091C000F4
:10E3700086FFFCCF8091C00080648093C000089528
:10E380008091C00087FFFCCF8091C600089520E0F7
:10E3900030E02817390749F0EFECF7E03197F1F753
:10E3A00000C000002F5F3F4FF4CF0895CF93DF935D
:10E3B000EC01C60FD11DAE0160E070E06BBFFA0149
:10E3C0008791882321F021960F94B4F1F4CFDF9147
:10E3D000CF9108958DE00F94B4F18AE00D94B4F1DB
:10E3E0000F94D6F10D94EAF1CF93DF93EC0189916C
:10E3F000882319F00F94B4F1FACFDF91CF910895EB
:10E40000CF93C82F982F92959F7080E3890F8A33FE
:10E4100010F087E3890F0F94B4F1CF7080E38C0F75
:10E420008A3310F087E38C0FCF910D94B4F10F93E2
:10E430001F93CF93DF93EC018B01853691051CF47C
:10E44000633071054CF0CE0164E670E00F94A1FBDF
:10E4500080E3860F0F94B4F1CB30D1051CF4023069
:10E4600011056CF0CE0164E670E00F94A1FB6AE048
:10E4700070E00F94A1FB80E3860F0F94B4F1CE01FE
:10E480006AE070E00F94A1FB805DDF91CF911F9156
:10E490000F910D94B4F1CF93C82F60E083E891EE13
:10E4A0000F94D6F18C2F0F94B4F1CF910D94EAF123
:10E4B0002F923F924F925F926F927F928F929F9294
:10E4C000AF92BF92CF92DF92EF92FF920F931F9382
:10E4D000CF93DF93CDB7DEB763970FB6F894DEBF67
:10E4E0000FBECDBF8B8B6A017B0100E110E0CE0136
:10E4F00001964C018EE2382E90E1292E280C91E0F5
:10E50000C916D104E906F10418F08E2D0F9400F21B
:10E510008D2D0F9400F28C2D0F9400F280E20F9459
:10E52000B4F18DE20F94B4F180E20F94B4F119824A
:10E53000540126013701EB89E13051F028F0E23037
:10E5400059F4F201108108C06BBEF201179104C0AA
:10E55000C2010F94EBFB182F812F0F9400F280E281
:10E560000F94B4F180EE810FF5018F3510F4108314
:10E5700001C03082FFEF4F1A5F0A6F0A7F0A8FEFE8
:10E58000A81AB80A2A10D7CF90E1C90ED11CE11CF5
:10E59000F11C198AC4010F94F4F10F94EAF10150AF
:10E5A00009F0ADCF63960FB6F894DEBF0FBECDBFB6
:10E5B000DF91CF911F910F91FF90EF90DF90CF905F
:10E5C000BF90AF909F908F907F906F905F904F9093
:10E5D0003F902F900895CF93DF93CDB7DEB7C05310
:10E5E000D1400FB6F894DEBF0FBECDBF01E20EBF23
:10E5F0000FEF0DBF94B7F894A89514BE80916000FA
:10E6000088618093600010926000789493FF05C049
:10E61000E0910402F09105021995279A2F9A8091B2
:10E62000C00082608093C00080E18093C40088E1D4
:10E630008093C1000000C75DDE4F19821882C95265
:10E64000D14017EC812E1BE1912EA12CB12CC12CB5
:10E65000D12C412C512C32018091C00087FF06C083
:10E6600076018091C00087FF38C026C0C114D10454
:10E67000B9F725E02A95F1F700003FEF431A530A56
:10E68000630A730A91E080E041E244164EE45406C6
:10E690006104710408F490E0C92ED82EC301B201C0
:10E6A000A50194010F94B5FB672B682B692BA1F68C
:10E6B00085B1805885B9D0CF0F94C0F18B3129F046
:10E6C00076015FEFE51AF50A08C081E090E0C75DCA
:10E6D000DE4F99838883C952D140B7016F5F7F4F66
:10E6E00009F4B5CF6130710511F00D947FFBC55D64
:10E6F000DE4F19821882CB52D140812C912CC85DFB
:10E70000DE4F1882C852D14010E0212C312CCC5D54
:10E71000DE4F188219821A821B82C452D140C12C4A
:10E72000D12C760180E090E040E06130710521F568
:10E73000C75DDE4FA881B981C952D140119731F52B
:10E74000C75DDE4F19821882C952D1400BE11EC04D
:10E750002091C00027FD18C0B1E04B1A5108610894
:10E760007108B1F76BBEF201279136912F3F3F4FF1
:10E7700019F0EE27FF27099444244394B2E15B2E5D
:10E78000BAE76B2E712CE4CF0091C600C55DDE4F59
:10E7900028813981CB52D1402F5F3F4FC55DDE4F7D
:10E7A00039832883CB52D140013209F028C52A3061
:10E7B000310508F072C53FEF831A930A53E08516BE
:10E7C000910409F06CC505E010E0A9E1AA2EB12C76
:10E7D00081E20F94B4F181E0A81AB108C9F70F944F
:10E7E000EAF10150110989F710920E0210920F02FE
:10E7F000109210021092110210920A0210920B0253
:10E8000010920C0210920D02109206021092070252
:10E81000109208021092090260E086EE92EE0F94C8
:10E82000F0F11FEF60E08AED92EE0F94D6F10F94B5
:10E83000C0F1082F803608F00F75003230F0802FBD
:10E840000F94B4F180E20F94B4F1063409F4D3C10B
:10E8500008F09BC0003409F40CC108F08FC00033ED
:10E8600009F4F1C00F3309F0C4C462E08BE691EE05
:10E870000F94F0F160E086EE92EE0F94F0F160E01C
:10E8800086EC92EE0F94D6F160E083E392EE0F9463
:10E89000F0F160E087EB92EE0F94D6F160E087E054
:10E8A00093EE0F94F0F160E088EA92EE0F94D6F1C7
:10E8B00086E30F94B4F10F94EAF160E08AE892EEF7
:10E8C0000F94D6F160E087E292EE0F94F0F160E0F1
:10E8D00089E992EE0F94D6F160E08DE292EE0F940A
:10E8E000F0F160E08BE792EE0F94D6F18EE10F9499
:10E8F00000F288E90F9400F281E00F9400F20F9487
:10E90000EAF160E08CE692EE0F94D6F129E0E0E0C7
:10E91000F0E02093570084910F9400F20F94EAF1F5
:10E9200060E08DE592EE0F94D6F129E0E3E0F0E0AF
:10E930002093570084910F9400F20F94EAF160E065
:10E940008EE492EE0F94D6F1E2E0F0E039E03093FD
:10E95000570084910F9400F20F94EAF160E08FE386
:10E9600092EE0F94D6F1E1E0F0E049E040935700D9
:10E9700084910F9400F20F94EAF154CF023409F419
:10E98000F6C0053409F40DC134C4013509F497C14A
:10E9900068F5083409F453C10C3409F02AC462E064
:10E9A0008EE191EE0F94F0F181E40F944BF282E44A
:10E9B0000F944BF283E40F944BF284E40F944BF2E8
:10E9C00085E40F944BF286E40F944BF287E40F94A6
:10E9D0004BF288E40F944BF28AE40F944BF28BE4F1
:10E9E0000F944BF28CE40F944BF21CCF063509F4D4
:10E9F00074C1093509F403C3023509F0FAC362E0B2
:10EA00008CE091EE0F94F0F140910E0250910F02C4
:10EA1000609110027091110282E00F9458F280917F
:10EA20000E0290910F02A0911002B09111029F5F0F
:10EA3000AF4FBF4F80930E0290930F02A09310022E
:10EA4000B0931102EFCE62E087E791EE0F94F0F100
:10EA500010920A0210920B0210920C0210920D02F8
:10EA600010920E0210920F021092100210921102D8
:10EA700072C062E08DE591EE0F94F0F160E08FE9F5
:10EA800091EE0F94F0F10F94EAF1A12CB12CC50195
:10EA90008A519D41A0E0B0E0ABBFFC0107910A3272
:10EAA00081F40F94EAF10F94EAF160E084E991EEC9
:10EAB0000F94F0F10F94EAF1812C912CA12CB12C40
:10EAC0002EC0A11482E0B80661F3602FC5010F9437
:10EAD000F3FB011106C060E08BEA91EE0F94D6F1D2
:10EAE00003C0802F0F94B4F15FEFA51AB50ACFCF02
:10EAF000A114B2E0BB06E9F0C5010F94EBFB782E40
:10EB0000811132C060E08BEA91EE0F94D6F170165D
:10EB100019F09FEF891A990AAFEFAA1ABA0AC5012C
:10EB20008A519D41A0E0B0E0ABBFFC0107910A32E1
:10EB3000F9F60F94EAF10F94EAF160E088E891EEBB
:10EB40000F94D6F161E070E0C4010F9417F20F94B6
:10EB5000EAF10F94EAF11092060210920702109265
:10EB60000802109209025ECE0F94B4F1D0CF62E099
:10EB700081E591EE0F94F0F1279A2F9A8091C000D1
:10EB800087FD0CC02F9884E690E00F94C7F12F9A70
:10EB900084E690E00F94C7F1F1CF12B80F94C0F162
:10EBA00041CE62E083E491EE0F94F0F140910602D1
:10EBB00050910702609108027091090281E00F9460
:10EBC00058F28091060290910702A0910802B0913C
:10EBD00009029F5FAF4FBF4F8093060290930702D9
:10EBE000A0930802B093090281159041A105B105D7
:10EBF00008F418CEB0CF62E086E391EE0F94F0F106
:10EC000040910A0250910B0260910C0270910D022A
:10EC100080E00F9458F280910A0290910B02A0912B
:10EC20000C02B0910D029F5FAF4FBF4F80930A025D
:10EC300090930B02A0930C02B0930D02F3CD62E00F
:10EC40008FE291EE0F94F0F160E087E791EE0F9480
:10EC5000F0F160E08BE691EE0F94F0F160E08DE56D
:10EC600091EE0F94F0F160E081E591EE0F94F0F1F8
:10EC700060E083E491EE0F94F0F160E086E391EEC2
:10EC80000F94F0F160E08FE291EE0F94F0F160E00C
:10EC90008EE191EE0F94F0F160E087E191EE0F9438
:10ECA000F0F160E08CE091EE0F94F0F160E083EF22
:10ECB00090EE0F94F0F160E086EE90EE9DC262E07F
:10ECC00087E191EE0F94F0F1812C912C21E0CE5D43
:10ECD000DE4F2883C252D140F9C262E083EF90EE4A
:10ECE0000F94F0F160E087E093EE0F94F0F160E0B4
:10ECF00082EF91EE0F94F0F1CE5DDE4F1982188213
:10ED0000C252D140412C512C3201A301920156959F
:10ED1000479537952795C25EDE4F288339834A830E
:10ED20005B83CE51D140CE5DDE4F48815981C252C6
:10ED3000D1404F5F5F4FCE5DDE4F59834883C25253
:10ED4000D14062E070E0CA010F9417F280E20F94A4
:10ED5000B4F18DE20F94B4F180E20F94B4F180E04D
:10ED60000F9400F2C25EDE4F8881CE51D1400F94E5
:10ED700000F280E20F94B4F18DE30F94B4F180E2DD
:10ED80000F94B4F16BBEF201A790D301C2010196BA
:10ED9000A11DB11DABBFFC019790D301C20102962A
:10EDA000A11DB11DABBFFC01B790D301C2010396F9
:10EDB000A11DB11DABBFFC01079154E0450E511CD4
:10EDC000611C711C492D50E060E070E0762F652FCA
:10EDD000542F44274A0D511D611D711D892DC35D9E
:10EDE000DE4F4883CD52D140C25DDE4F5883CE52B4
:10EDF000D140C15DDE4F6883CF52D140C05DDE4F50
:10EE00007883C053D1400F9400F280E20F94B4F1A4
:10EE10008A2D0F9400F280E20F94B4F1802F0F94AA
:10EE200000F280E20F94B4F18B2D0F9400F280E297
:10EE30000F94B4F1C35DDE4F4881CD52D140C25D25
:10EE4000DE4F5881CE52D140C15DDE4F6881CF5236
:10EE5000D140C05DDE4F7881C053D1404F3F8FEF2E
:10EE600058076105710531F460E088EE91EE0F946A
:10EE7000D6F1B8C0DB01CA018827907CAA27BB273E
:10EE80008115904CA105B10599F54A015B01FFE39D
:10EE90009F22AA24BB24C25EDE4F88819981AA8169
:10EEA000BB81CE51D140880D991DAA1DBB1D9C016F
:10EEB000AD01220F331F441F551FC25EDE4F288352
:10EEC00039834A835B83CE51D14060E081EE91EE7D
:10EED0000F94D6F1892D0F9400F2882D0F9400F233
:10EEE00080E20F94B4F18EE30F94B4F180E06AC035
:10EEF0004E705E7F662777274C3054496105710557
:10EF000009F070C0802F90E0A0E0B0E0BA2FA92FE8
:10EF1000982F88278B0D911DA11DB11D4A2D417081
:10EF200050E060E070E0BA0155274427480F591FB0
:10EF30006A1F7B1F8A2D807F90E0A0E0B0E031E166
:10EF4000880F991FAA1FBB1F3A95D1F7840F951FF1
:10EF5000A61FB71F292D2170822E912CA12CB12C18
:10EF600045E1880C991CAA1CBB1C4A95D1F7880E58
:10EF7000991EAA1EBB1EA5019401220F331F441F18
:10EF8000551FC25EDE4F288339834A835B83CE518F
:10EF9000D14060E08CED91EE0F94D6F18A2D0F9464
:10EFA00000F2892D0F9400F2882D0F9400F280E278
:10EFB0000F94B4F18EE30F94B4F1C05EDE4F8881FC
:10EFC000C052D1400F9400F2C15EDE4F8881CF5114
:10EFD000D1400F9400F2C25EDE4F8881CE51D14005
:10EFE0000F9400F20F94EAF1CE5DDE4F4881598113
:10EFF000C252D1404933510509F087CE13CC62E0AB
:10F0000086EE90EE0F94F0F160E081ED91EE0F94BA
:10F01000D6F10F94C0F1082F0F75802F0F94B4F123
:10F020000F94EAF18FEB800F8A3108F0DEC00634CE
:10F0300009F471C098F4033409F441C038F4013480
:10F0400019F1023409F0CDC014B92BC0043409F40D
:10F0500045C0053409F0C5C01DB94FC00A3409F4D4
:10F0600089C048F4073409F465C0083409F0B9C010
:10F07000109301016EC00B3409F48FC00C3409F0F9
:10F08000B0C010930A019CC011B98091C00087FDE7
:10F0900084CD82B1809582B988EC90E00F94C7F15D
:10F0A000F4CF8091C00087FD08C085B1809585B9F7
:10F0B00088EC90E00F94C7F1F4CF15B86FCD17B975
:10F0C0008091C00087FD08C088B1809588B988EC20
:10F0D00090E00F94C7F1F4CF18B860CD1AB98091C1
:10F0E000C00087FD08C08BB180958BB988EC90E09B
:10F0F0000F94C7F1F4CF1BB851CD8091C00087FDAC
:10F1000008C08EB180958EB988EC90E00F94C7F15D
:10F11000F4CF1EB843CD10BB8091C00087FD08C05E
:10F1200081B3809581BB88EC90E00F94C7F1F4CF58
:10F1300011BA34CD13BB8091C00087FD08C084B3E1
:10F14000809584BB88EC90E00F94C7F1F4CF14BA9B
:10F1500025CD8091C00087FD0AC080910201809575
:10F160008093020188EC90E00F94C7F1F2CF1092E7
:10F17000020114CD109304018091C00087FD0AC0E4
:10F180008091050180958093050188EC90E00F94B3
:10F19000C7F1F2CF1092050101CD109307018091C4
:10F1A000C00087FD0AC08091080180958093080106
:10F1B00088EC90E00F94C7F1F2CF10920801EECCEA
:10F1C0008091C00087FD0AC080910B0180958093DB
:10F1D0000B0188EC90E00F94C7F1F2CF10920B0175
:10F1E000DDCC60E08EEB91EE07C060E08DEA91EE41
:10F1F00003C060E085ED92EE0F94F0F113CB433045
:10F2000049F120F4413099F050F01BC0453089F1AC
:10F2100038F1463009F050C0812C912C4AC0812C25
:10F22000912C0B3109F47FC260E070E07ECA812C22
:10F23000912C1027C85DDE4F0883C852D14042E0B0
:10F24000F3CF812C912C802F90E0982F88271027C6
:10F2500043E0EACF812C912C802B102744E0E4CFAF
:10F26000812C912C0E3009F06AC21027212C312CF0
:10F270005EC2812C912C91012F5F3F4FE1E0F0E0C5
:10F28000EC0FFD1FE20DF31D00831027281739072F
:10F2900009F04CC21C0146E0C7CF812C912C4330B1
:10F2A000D9F208F446C2453031F308F448C246307A
:10F2B00029F4011344C205C0812C912C473009F078
:10F2C000B3CFCE5DDE4F1882C252D14029812331A7
:10F2D00009F4E4C068F5263009F4CEC000F5223008
:10F2E00009F472C1233009F466C0213009F0B8C1B5
:10F2F0001A8288E08B8381E48C8386E58D8382E5A6
:10F300008E8389E48F8383E5888780E589878FE50D
:10F310008A8782E38B877BE0A72EB12CA6C121319F
:10F3200009F456C008F09AC0203109F44DC198C1C3
:10F33000283109F46CC048F4253109F4AFC008F451
:10F3400045C1263109F442C18BC12A3109F452C0AA
:10F3500008F472C02B3109F442C02D3109F080C18C
:10F360009D81903339F48F818823B1F08130B1F0E1
:10F3700081E017C0892F807599F0903521F489E0DC
:10F38000E0E0F0E005C0983559F4E3E0F0E089E012
:10F3900080935700849105C08EE103C088E901C0C5
:10F3A00080E01A821B829C831D828E831F82E7E08D
:10F3B000AE2EB12C5AC1EA81E059E33028F4F0E0D6
:10F3C000E050FE4F808101C080E01A828B8342C0F2
:10F3D00021E0CE5DDE4F2883C252D140F5C08D8141
:10F3E000882321F0813021F081E024C08EE122C009
:10F3F00088E920C01A82E1E0F0E089E080935700BC
:10F4000084918B831C8264E0A62EB12C2EC18B814B
:10F41000803551F48C81883019F4E2E0F0E006C0C8
:10F4200089E0E0E0F0E003C0E3E0F0E089E0809311
:10F43000570084911A82E5CF8D81836C99E0E1E0D9
:10F44000F0E0082E90935700E89507B600FCFDCF3A
:10F450001A821B8253E0A52EB12C07C180EC8A834F
:10F4600042E0A42EB12CCC5DDE4F188219821A82A4
:10F470001B82C452D140F9C08A81CB80D12CE12CAF
:10F48000F12C7601DD24CC24F82A8D81C82A8C81C8
:10F49000D82ACC0CDD1CEE1CFF1C96C00A8110E0A3
:10F4A000102F00278B81082B233109F05AC0CC5D27
:10F4B000DE4F288139814A815B81C452D1402115B8
:10F4C00080EC380783E048075105E8F483E0F90150
:10F4D00040935B0080935700E89507B600FCFDCF92
:10F4E000CC5DDE4F288139814A815B81C452D14095
:10F4F0003F5F4F4F5F4FCC5DDE4F288339834A8398
:10F500005B83C452D1408B85B701A601DE011B96F7
:10F5100021E01296FD013197308190E0932B0C0190
:10F52000FA0160935B0020935700E89511244E5F29
:10F530005F4F6F4F7F4F0250110911F08C91E9CF4F
:10F5400085E0F601E0925B0080935700E89507B6EE
:10F5500000FCFDCF81E180935700E8956A017B01B3
:10F5600033C0A70196015695479537952795C25EFA
:10F57000DE4F288339834A835B83CE51D1405E01BD
:10F580003BE0A30EB11C612C712C6016710689F052
:10F59000D5016D915D01C25EDE4F88819981CE51AA
:10F5A000D140860D971D0F94F3FBBFEF6B1A7B0ABA
:10F5B000ECCFC301A0E0B0E0880F991FAA1FBB1FCA
:10F5C000C80ED91EEA1EFB1E1A824CC08A8190E02A
:10F5D000982F88273B81832B5C01E3E0AE0EB11CA2
:10F5E0001A82243199F4DE011396EBBEF6012791BD
:10F5F00036912C931296FD0131973083F2E0CF0EB5
:10F60000D11CE11CF11C029781F728C0FE01339642
:10F610009C01B701A60141BD452E562E672E7724C9
:10F6200042BC4F5F5F4F6F4F7F4FF89AA0B5A193D9
:10F630002150310981F7AC014150510960E070E07F
:10F640004F5F5F4F6F4F7F4FC40ED51EE61EF71EF4
:10F65000A3E0B0E0AC0FBD1FA80FB91F1C9205C0FE
:10F6600080EC8A8382E0A82EB12C8BE10F94B4F158
:10F67000C85DDE4F8881C852D1400F94B4F18B2D04
:10F680000F94B4F10A2D8A2D0F94B4F115E1C85DE1
:10F69000DE4F2881C852D14012271A258EE00F94E0
:10F6A000B4F11B25AE014F5F5F4F3A01A40EB51EAA
:10F6B0006A147B0441F0D3010D913D01802F0F941A
:10F6C000B4F11027F5CF812F0F94B4F1C85DDE4F50
:10F6D0002881C852D1402F5FC85DDE4F2883C852B1
:10F6E000D14085B1805885B960E070E0CE5DDE4FD5
:10F6F0003881C252D140332311F40D9492F32798EC
:10F700002F9884E690E00F94C7F100008091C0002C
:10F710008D7F8093C00081E180935700E895EE27AC
:10F72000FF270994FFCF1BE141E07ECD190145E0A1
:10F730007BCD413009F47DCD08F476CD84CD40E019
:10F7400073CD97FB072E16F4009407D077FD09D0F0
:10F750000F94D7FB07FC05D03EF4909581959F4F01
:10F760000895709561957F4F0895A1E21A2EAA1B06
:10F77000BB1BFD010DC0AA1FBB1FEE1FFF1FA21761
:10F78000B307E407F50720F0A21BB30BE40BF50B5E
:10F79000661F771F881F991F1A9469F760957095E7
:10F7A000809590959B01AC01BD01CF010895AA1BE6
:10F7B000BB1B51E107C0AA1FBB1FA617B70710F05C
:10F7C000A61BB70B881F991F5A95A9F7809590958E
:10F7D000BC01CD010895F999FECF92BD81BDF89A83
:10F7E000992780B50895262FF999FECF1FBA92BDAB
:10F7F00081BD20BD0FB6F894FA9AF99A0FBE019612
:06F800000895F894FFCF0B
:04F806000F020A00E3
:040000033000E000E9
:00000001FF
